{
  "_format": "hh-sol-artifact-1",
  "contractName": "ExampleNFT",
  "sourceName": "contracts/ExampleNFT.sol",
  "abi": [
    {
      "inputs": [],
      "stateMutability": "nonpayable",
      "type": "constructor"
    },
    {
      "anonymous": false,
      "inputs": [
        {
          "indexed": true,
          "internalType": "address",
          "name": "account",
          "type": "address"
        },
        {
          "indexed": true,
          "internalType": "address",
          "name": "operator",
          "type": "address"
        },
        {
          "indexed": false,
          "internalType": "bool",
          "name": "approved",
          "type": "bool"
        }
      ],
      "name": "ApprovalForAll",
      "type": "event"
    },
    {
      "anonymous": false,
      "inputs": [
        {
          "indexed": true,
          "internalType": "address",
          "name": "previousOwner",
          "type": "address"
        },
        {
          "indexed": true,
          "internalType": "address",
          "name": "newOwner",
          "type": "address"
        }
      ],
      "name": "OwnershipTransferred",
      "type": "event"
    },
    {
      "anonymous": false,
      "inputs": [
        {
          "indexed": true,
          "internalType": "address",
          "name": "operator",
          "type": "address"
        },
        {
          "indexed": true,
          "internalType": "address",
          "name": "from",
          "type": "address"
        },
        {
          "indexed": true,
          "internalType": "address",
          "name": "to",
          "type": "address"
        },
        {
          "indexed": false,
          "internalType": "uint256[]",
          "name": "ids",
          "type": "uint256[]"
        },
        {
          "indexed": false,
          "internalType": "uint256[]",
          "name": "values",
          "type": "uint256[]"
        }
      ],
      "name": "TransferBatch",
      "type": "event"
    },
    {
      "anonymous": false,
      "inputs": [
        {
          "indexed": true,
          "internalType": "address",
          "name": "operator",
          "type": "address"
        },
        {
          "indexed": true,
          "internalType": "address",
          "name": "from",
          "type": "address"
        },
        {
          "indexed": true,
          "internalType": "address",
          "name": "to",
          "type": "address"
        },
        {
          "indexed": false,
          "internalType": "uint256",
          "name": "id",
          "type": "uint256"
        },
        {
          "indexed": false,
          "internalType": "uint256",
          "name": "value",
          "type": "uint256"
        }
      ],
      "name": "TransferSingle",
      "type": "event"
    },
    {
      "anonymous": false,
      "inputs": [
        {
          "indexed": false,
          "internalType": "string",
          "name": "value",
          "type": "string"
        },
        {
          "indexed": true,
          "internalType": "uint256",
          "name": "id",
          "type": "uint256"
        }
      ],
      "name": "URI",
      "type": "event"
    },
    {
      "inputs": [
        {
          "internalType": "address",
          "name": "account",
          "type": "address"
        },
        {
          "internalType": "uint256",
          "name": "id",
          "type": "uint256"
        }
      ],
      "name": "balanceOf",
      "outputs": [
        {
          "internalType": "uint256",
          "name": "",
          "type": "uint256"
        }
      ],
      "stateMutability": "view",
      "type": "function"
    },
    {
      "inputs": [
        {
          "internalType": "address[]",
          "name": "accounts",
          "type": "address[]"
        },
        {
          "internalType": "uint256[]",
          "name": "ids",
          "type": "uint256[]"
        }
      ],
      "name": "balanceOfBatch",
      "outputs": [
        {
          "internalType": "uint256[]",
          "name": "",
          "type": "uint256[]"
        }
      ],
      "stateMutability": "view",
      "type": "function"
    },
    {
      "inputs": [
        {
          "internalType": "address",
          "name": "account",
          "type": "address"
        },
        {
          "internalType": "address",
          "name": "operator",
          "type": "address"
        }
      ],
      "name": "isApprovedForAll",
      "outputs": [
        {
          "internalType": "bool",
          "name": "",
          "type": "bool"
        }
      ],
      "stateMutability": "view",
      "type": "function"
    },
    {
      "inputs": [],
      "name": "isPublicMintEnabled",
      "outputs": [
        {
          "internalType": "bool",
          "name": "",
          "type": "bool"
        }
      ],
      "stateMutability": "view",
      "type": "function"
    },
    {
      "inputs": [],
      "name": "maxMint",
      "outputs": [
        {
          "internalType": "uint256",
          "name": "",
          "type": "uint256"
        }
      ],
      "stateMutability": "view",
      "type": "function"
    },
    {
      "inputs": [],
      "name": "maxPerTokenId",
      "outputs": [
        {
          "internalType": "uint256",
          "name": "",
          "type": "uint256"
        }
      ],
      "stateMutability": "view",
      "type": "function"
    },
    {
      "inputs": [
        {
          "internalType": "uint256",
          "name": "_amount",
          "type": "uint256"
        }
      ],
      "name": "mintFour",
      "outputs": [],
      "stateMutability": "payable",
      "type": "function"
    },
    {
      "inputs": [
        {
          "internalType": "uint256",
          "name": "_amount",
          "type": "uint256"
        }
      ],
      "name": "mintOne",
      "outputs": [],
      "stateMutability": "payable",
      "type": "function"
    },
    {
      "inputs": [],
      "name": "mintPrice",
      "outputs": [
        {
          "internalType": "uint256",
          "name": "",
          "type": "uint256"
        }
      ],
      "stateMutability": "view",
      "type": "function"
    },
    {
      "inputs": [
        {
          "internalType": "uint256",
          "name": "_amount",
          "type": "uint256"
        }
      ],
      "name": "mintThree",
      "outputs": [],
      "stateMutability": "payable",
      "type": "function"
    },
    {
      "inputs": [
        {
          "internalType": "uint256",
          "name": "_amount",
          "type": "uint256"
        }
      ],
      "name": "mintTwo",
      "outputs": [],
      "stateMutability": "payable",
      "type": "function"
    },
    {
      "inputs": [],
      "name": "mintedFour",
      "outputs": [
        {
          "internalType": "uint256",
          "name": "",
          "type": "uint256"
        }
      ],
      "stateMutability": "view",
      "type": "function"
    },
    {
      "inputs": [],
      "name": "mintedOne",
      "outputs": [
        {
          "internalType": "uint256",
          "name": "",
          "type": "uint256"
        }
      ],
      "stateMutability": "view",
      "type": "function"
    },
    {
      "inputs": [],
      "name": "mintedThree",
      "outputs": [
        {
          "internalType": "uint256",
          "name": "",
          "type": "uint256"
        }
      ],
      "stateMutability": "view",
      "type": "function"
    },
    {
      "inputs": [],
      "name": "mintedTwo",
      "outputs": [
        {
          "internalType": "uint256",
          "name": "",
          "type": "uint256"
        }
      ],
      "stateMutability": "view",
      "type": "function"
    },
    {
      "inputs": [],
      "name": "owner",
      "outputs": [
        {
          "internalType": "address",
          "name": "",
          "type": "address"
        }
      ],
      "stateMutability": "view",
      "type": "function"
    },
    {
      "inputs": [],
      "name": "renounceOwnership",
      "outputs": [],
      "stateMutability": "nonpayable",
      "type": "function"
    },
    {
      "inputs": [
        {
          "internalType": "address",
          "name": "from",
          "type": "address"
        },
        {
          "internalType": "address",
          "name": "to",
          "type": "address"
        },
        {
          "internalType": "uint256[]",
          "name": "ids",
          "type": "uint256[]"
        },
        {
          "internalType": "uint256[]",
          "name": "amounts",
          "type": "uint256[]"
        },
        {
          "internalType": "bytes",
          "name": "data",
          "type": "bytes"
        }
      ],
      "name": "safeBatchTransferFrom",
      "outputs": [],
      "stateMutability": "nonpayable",
      "type": "function"
    },
    {
      "inputs": [
        {
          "internalType": "address",
          "name": "from",
          "type": "address"
        },
        {
          "internalType": "address",
          "name": "to",
          "type": "address"
        },
        {
          "internalType": "uint256",
          "name": "id",
          "type": "uint256"
        },
        {
          "internalType": "uint256",
          "name": "amount",
          "type": "uint256"
        },
        {
          "internalType": "bytes",
          "name": "data",
          "type": "bytes"
        }
      ],
      "name": "safeTransferFrom",
      "outputs": [],
      "stateMutability": "nonpayable",
      "type": "function"
    },
    {
      "inputs": [
        {
          "internalType": "address",
          "name": "operator",
          "type": "address"
        },
        {
          "internalType": "bool",
          "name": "approved",
          "type": "bool"
        }
      ],
      "name": "setApprovalForAll",
      "outputs": [],
      "stateMutability": "nonpayable",
      "type": "function"
    },
    {
      "inputs": [
        {
          "internalType": "bool",
          "name": "_isPublicMintEnabled",
          "type": "bool"
        }
      ],
      "name": "setIsPublicMintEnabled",
      "outputs": [],
      "stateMutability": "nonpayable",
      "type": "function"
    },
    {
      "inputs": [
        {
          "internalType": "uint256",
          "name": "_maxMint",
          "type": "uint256"
        }
      ],
      "name": "setMaxMint",
      "outputs": [],
      "stateMutability": "nonpayable",
      "type": "function"
    },
    {
      "inputs": [
        {
          "internalType": "uint256",
          "name": "_maxPerTokenId",
          "type": "uint256"
        }
      ],
      "name": "setMaxPerTokenId",
      "outputs": [],
      "stateMutability": "nonpayable",
      "type": "function"
    },
    {
      "inputs": [
        {
          "internalType": "uint256",
          "name": "_mintPrice",
          "type": "uint256"
        }
      ],
      "name": "setMintPrice",
      "outputs": [],
      "stateMutability": "nonpayable",
      "type": "function"
    },
    {
      "inputs": [
        {
          "internalType": "string",
          "name": "newuri",
          "type": "string"
        }
      ],
      "name": "setURI",
      "outputs": [],
      "stateMutability": "nonpayable",
      "type": "function"
    },
    {
      "inputs": [
        {
          "internalType": "address payable",
          "name": "_withdrawWallet",
          "type": "address"
        }
      ],
      "name": "setWithdrawWallet",
      "outputs": [],
      "stateMutability": "nonpayable",
      "type": "function"
    },
    {
      "inputs": [
        {
          "internalType": "uint256",
          "name": "_supplyFour",
          "type": "uint256"
        }
      ],
      "name": "setsupplyFour",
      "outputs": [],
      "stateMutability": "nonpayable",
      "type": "function"
    },
    {
      "inputs": [
        {
          "internalType": "uint256",
          "name": "_supplyOne",
          "type": "uint256"
        }
      ],
      "name": "setsupplyOne",
      "outputs": [],
      "stateMutability": "nonpayable",
      "type": "function"
    },
    {
      "inputs": [
        {
          "internalType": "uint256",
          "name": "_supplyThree",
          "type": "uint256"
        }
      ],
      "name": "setsupplyThree",
      "outputs": [],
      "stateMutability": "nonpayable",
      "type": "function"
    },
    {
      "inputs": [
        {
          "internalType": "uint256",
          "name": "_supplyTwo",
          "type": "uint256"
        }
      ],
      "name": "setsupplyTwo",
      "outputs": [],
      "stateMutability": "nonpayable",
      "type": "function"
    },
    {
      "inputs": [],
      "name": "supplyFour",
      "outputs": [
        {
          "internalType": "uint256",
          "name": "",
          "type": "uint256"
        }
      ],
      "stateMutability": "view",
      "type": "function"
    },
    {
      "inputs": [],
      "name": "supplyOne",
      "outputs": [
        {
          "internalType": "uint256",
          "name": "",
          "type": "uint256"
        }
      ],
      "stateMutability": "view",
      "type": "function"
    },
    {
      "inputs": [],
      "name": "supplyThree",
      "outputs": [
        {
          "internalType": "uint256",
          "name": "",
          "type": "uint256"
        }
      ],
      "stateMutability": "view",
      "type": "function"
    },
    {
      "inputs": [],
      "name": "supplyTwo",
      "outputs": [
        {
          "internalType": "uint256",
          "name": "",
          "type": "uint256"
        }
      ],
      "stateMutability": "view",
      "type": "function"
    },
    {
      "inputs": [
        {
          "internalType": "bytes4",
          "name": "interfaceId",
          "type": "bytes4"
        }
      ],
      "name": "supportsInterface",
      "outputs": [
        {
          "internalType": "bool",
          "name": "",
          "type": "bool"
        }
      ],
      "stateMutability": "view",
      "type": "function"
    },
    {
      "inputs": [
        {
          "internalType": "address",
          "name": "newOwner",
          "type": "address"
        }
      ],
      "name": "transferOwnership",
      "outputs": [],
      "stateMutability": "nonpayable",
      "type": "function"
    },
    {
      "inputs": [
        {
          "internalType": "uint256",
          "name": "_tokenId",
          "type": "uint256"
        }
      ],
      "name": "uri",
      "outputs": [
        {
          "internalType": "string",
          "name": "",
          "type": "string"
        }
      ],
      "stateMutability": "pure",
      "type": "function"
    },
    {
      "inputs": [
        {
          "internalType": "address",
          "name": "",
          "type": "address"
        }
      ],
      "name": "walletMintFour",
      "outputs": [
        {
          "internalType": "uint256",
          "name": "",
          "type": "uint256"
        }
      ],
      "stateMutability": "view",
      "type": "function"
    },
    {
      "inputs": [
        {
          "internalType": "address",
          "name": "",
          "type": "address"
        }
      ],
      "name": "walletMintOne",
      "outputs": [
        {
          "internalType": "uint256",
          "name": "",
          "type": "uint256"
        }
      ],
      "stateMutability": "view",
      "type": "function"
    },
    {
      "inputs": [
        {
          "internalType": "address",
          "name": "",
          "type": "address"
        }
      ],
      "name": "walletMintThree",
      "outputs": [
        {
          "internalType": "uint256",
          "name": "",
          "type": "uint256"
        }
      ],
      "stateMutability": "view",
      "type": "function"
    },
    {
      "inputs": [
        {
          "internalType": "address",
          "name": "",
          "type": "address"
        }
      ],
      "name": "walletMintTwo",
      "outputs": [
        {
          "internalType": "uint256",
          "name": "",
          "type": "uint256"
        }
      ],
      "stateMutability": "view",
      "type": "function"
    },
    {
      "inputs": [],
      "name": "withdraw",
      "outputs": [],
      "stateMutability": "nonpayable",
      "type": "function"
    },
    {
      "inputs": [],
      "name": "withdrawWallet",
      "outputs": [
        {
          "internalType": "address payable",
          "name": "",
          "type": "address"
        }
      ],
      "stateMutability": "view",
      "type": "function"
    }
  ],
  "bytecode": "0x6080604052600a600455600a600555600a600655600a6007556001600e556001600f553480156200002f57600080fd5b506040518060800160405280604d815260200162004743604d91396200005b816200008260201b60201c565b506200007c620000706200009e60201b60201c565b620000a660201b60201c565b62000281565b80600290805190602001906200009a9291906200016c565b5050565b600033905090565b6000600360009054906101000a900473ffffffffffffffffffffffffffffffffffffffff16905081600360006101000a81548173ffffffffffffffffffffffffffffffffffffffff021916908373ffffffffffffffffffffffffffffffffffffffff1602179055508173ffffffffffffffffffffffffffffffffffffffff168173ffffffffffffffffffffffffffffffffffffffff167f8be0079c531659141344cd1fd0a4f28419497f9722a3daafe3b4186f6b6457e060405160405180910390a35050565b8280546200017a906200024b565b90600052602060002090601f0160209004810192826200019e5760008555620001ea565b82601f10620001b957805160ff1916838001178555620001ea565b82800160010185558215620001ea579182015b82811115620001e9578251825591602001919060010190620001cc565b5b509050620001f99190620001fd565b5090565b5b8082111562000218576000816000905550600101620001fe565b5090565b7f4e487b7100000000000000000000000000000000000000000000000000000000600052602260045260246000fd5b600060028204905060018216806200026457607f821691505b602082108114156200027b576200027a6200021c565b5b50919050565b6144b280620002916000396000f3fe60806040526004361061025b5760003560e01c806385d178f411610144578063cb3cb5c4116100b6578063e985e9c51161007a578063e985e9c5146108af578063f242432a146108ec578063f2edb07e14610915578063f2fde38b1461093e578063f4a0a52814610967578063fb2198ce146109905761025b565b8063cb3cb5c4146107e1578063d081212d146107fd578063d7e003a814610819578063e01e0b2114610835578063e84674cf146108725761025b565b806395b0a4b01161010857806395b0a4b0146106e5578063a22cb4651461070e578063b7ad949a14610737578063bfa8ea0d14610762578063c46308311461078b578063c8d80614146107b65761025b565b806385d178f4146105fe5780638ba213dc146106295780638da5cb5b146106665780639373f43214610691578063947dd6d0146106ba5761025b565b80632eb2c2d6116101dd5780634e1273f4116101a15780634e1273f414610500578063547520fe1461053d5780636817c76c146105665780636ef9a2db14610591578063715018a6146105bc5780637501f741146105d35761025b565b80632eb2c2d61461044e57806339ffe6bf146104775780633ccfd60b146104935780633e0efa8a146104aa5780634d34302c146104d55761025b565b806321cbe9211161022457806321cbe9211461036b5780632373ac2214610394578063237f5c31146103bd57806323a4c27e146103e65780632bf1db8e146104235761025b565b8062fdd58e146102605780630116bc2d1461029d57806301ffc9a7146102c857806302fe5305146103055780630e89341c1461032e575b600080fd5b34801561026c57600080fd5b5061028760048036038101906102829190612b10565b6109bb565b6040516102949190612b5f565b60405180910390f35b3480156102a957600080fd5b506102b2610a84565b6040516102bf9190612b95565b60405180910390f35b3480156102d457600080fd5b506102ef60048036038101906102ea9190612c08565b610a97565b6040516102fc9190612b95565b60405180910390f35b34801561031157600080fd5b5061032c60048036038101906103279190612d7b565b610b79565b005b34801561033a57600080fd5b5061035560048036038101906103509190612dc4565b610b8d565b6040516103629190612e79565b60405180910390f35b34801561037757600080fd5b50610392600480360381019061038d9190612dc4565b610bbe565b005b3480156103a057600080fd5b506103bb60048036038101906103b69190612ec7565b610bd0565b005b3480156103c957600080fd5b506103e460048036038101906103df9190612dc4565b610bf5565b005b3480156103f257600080fd5b5061040d60048036038101906104089190612ef4565b610c07565b60405161041a9190612b5f565b60405180910390f35b34801561042f57600080fd5b50610438610c1f565b6040516104459190612b5f565b60405180910390f35b34801561045a57600080fd5b506104756004803603810190610470919061308a565b610c25565b005b610491600480360381019061048c9190612dc4565b610cc6565b005b34801561049f57600080fd5b506104a8610e1d565b005b3480156104b657600080fd5b506104bf610ef6565b6040516104cc9190612b5f565b60405180910390f35b3480156104e157600080fd5b506104ea610efc565b6040516104f79190612b5f565b60405180910390f35b34801561050c57600080fd5b506105276004803603810190610522919061321c565b610f02565b6040516105349190613352565b60405180910390f35b34801561054957600080fd5b50610564600480360381019061055f9190612dc4565b61101b565b005b34801561057257600080fd5b5061057b61102d565b6040516105889190612b5f565b60405180910390f35b34801561059d57600080fd5b506105a6611033565b6040516105b39190612b5f565b60405180910390f35b3480156105c857600080fd5b506105d1611039565b005b3480156105df57600080fd5b506105e861104d565b6040516105f59190612b5f565b60405180910390f35b34801561060a57600080fd5b50610613611053565b6040516106209190613395565b60405180910390f35b34801561063557600080fd5b50610650600480360381019061064b9190612ef4565b611079565b60405161065d9190612b5f565b60405180910390f35b34801561067257600080fd5b5061067b611091565b60405161068891906133bf565b60405180910390f35b34801561069d57600080fd5b506106b860048036038101906106b39190613406565b6110bb565b005b3480156106c657600080fd5b506106cf611107565b6040516106dc9190612b5f565b60405180910390f35b3480156106f157600080fd5b5061070c60048036038101906107079190612dc4565b61110d565b005b34801561071a57600080fd5b5061073560048036038101906107309190613433565b61111f565b005b34801561074357600080fd5b5061074c611135565b6040516107599190612b5f565b60405180910390f35b34801561076e57600080fd5b5061078960048036038101906107849190612dc4565b61113b565b005b34801561079757600080fd5b506107a061114d565b6040516107ad9190612b5f565b60405180910390f35b3480156107c257600080fd5b506107cb611153565b6040516107d89190612b5f565b60405180910390f35b6107fb60048036038101906107f69190612dc4565b611159565b005b61081760048036038101906108129190612dc4565b6112b0565b005b610833600480360381019061082e9190612dc4565b611407565b005b34801561084157600080fd5b5061085c60048036038101906108579190612ef4565b61155e565b6040516108699190612b5f565b60405180910390f35b34801561087e57600080fd5b5061089960048036038101906108949190612ef4565b611576565b6040516108a69190612b5f565b60405180910390f35b3480156108bb57600080fd5b506108d660048036038101906108d19190613473565b61158e565b6040516108e39190612b95565b60405180910390f35b3480156108f857600080fd5b50610913600480360381019061090e91906134b3565b611622565b005b34801561092157600080fd5b5061093c60048036038101906109379190612dc4565b6116c3565b005b34801561094a57600080fd5b5061096560048036038101906109609190612ef4565b6116d5565b005b34801561097357600080fd5b5061098e60048036038101906109899190612dc4565b611759565b005b34801561099c57600080fd5b506109a561176b565b6040516109b29190612b5f565b60405180910390f35b60008073ffffffffffffffffffffffffffffffffffffffff168373ffffffffffffffffffffffffffffffffffffffff161415610a2c576040517f08c379a0000000000000000000000000000000000000000000000000000000008152600401610a23906135bc565b60405180910390fd5b60008083815260200190815260200160002060008473ffffffffffffffffffffffffffffffffffffffff1673ffffffffffffffffffffffffffffffffffffffff16815260200190815260200160002054905092915050565b600d60149054906101000a900460ff1681565b60007fd9b67a26000000000000000000000000000000000000000000000000000000007bffffffffffffffffffffffffffffffffffffffffffffffffffffffff1916827bffffffffffffffffffffffffffffffffffffffffffffffffffffffff19161480610b6257507f0e89341c000000000000000000000000000000000000000000000000000000007bffffffffffffffffffffffffffffffffffffffffffffffffffffffff1916827bffffffffffffffffffffffffffffffffffffffffffffffffffffffff1916145b80610b725750610b7182611771565b5b9050919050565b610b816117db565b610b8a81611859565b50565b6060610b9882611873565b604051602001610ba891906136fc565b6040516020818303038152906040529050919050565b610bc66117db565b8060078190555050565b610bd86117db565b80600d60146101000a81548160ff02191690831515021790555050565b610bfd6117db565b80600e8190555050565b60136020528060005260406000206000915090505481565b60075481565b610c2d61194b565b73ffffffffffffffffffffffffffffffffffffffff168573ffffffffffffffffffffffffffffffffffffffff161480610c735750610c7285610c6d61194b565b61158e565b5b610cb2576040517f08c379a0000000000000000000000000000000000000000000000000000000008152600401610ca99061379b565b60405180910390fd5b610cbf8585858585611953565b5050505050565b60006004905060075482600b54610cdd91906137ea565b1115610d1e576040517f08c379a0000000000000000000000000000000000000000000000000000000008152600401610d159061388c565b60405180910390fd5b600f54601360003373ffffffffffffffffffffffffffffffffffffffff1673ffffffffffffffffffffffffffffffffffffffff1681526020019081526020016000205410610da1576040517f08c379a0000000000000000000000000000000000000000000000000000000008152600401610d98906138f8565b60405180910390fd5b610dab8183611c75565b601360003373ffffffffffffffffffffffffffffffffffffffff1673ffffffffffffffffffffffffffffffffffffffff1681526020019081526020016000206000815480929190610dfb90613918565b919050555081600b6000828254610e1291906137ea565b925050819055505050565b610e256117db565b6000600d60009054906101000a900473ffffffffffffffffffffffffffffffffffffffff1673ffffffffffffffffffffffffffffffffffffffff1647604051610e6d90613992565b60006040518083038185875af1925050503d8060008114610eaa576040519150601f19603f3d011682016040523d82523d6000602084013e610eaf565b606091505b5050905080610ef3576040517f08c379a0000000000000000000000000000000000000000000000000000000008152600401610eea906139f3565b60405180910390fd5b50565b600e5481565b60095481565b60608151835114610f48576040517f08c379a0000000000000000000000000000000000000000000000000000000008152600401610f3f90613a85565b60405180910390fd5b6000835167ffffffffffffffff811115610f6557610f64612c50565b5b604051908082528060200260200182016040528015610f935781602001602082028036833780820191505090505b50905060005b845181101561101057610fe0858281518110610fb857610fb7613aa5565b5b6020026020010151858381518110610fd357610fd2613aa5565b5b60200260200101516109bb565b828281518110610ff357610ff2613aa5565b5b6020026020010181815250508061100990613918565b9050610f99565b508091505092915050565b6110236117db565b80600f8190555050565b600c5481565b60065481565b6110416117db565b61104b6000611d77565b565b600f5481565b600d60009054906101000a900473ffffffffffffffffffffffffffffffffffffffff1681565b60106020528060005260406000206000915090505481565b6000600360009054906101000a900473ffffffffffffffffffffffffffffffffffffffff16905090565b6110c36117db565b80600d60006101000a81548173ffffffffffffffffffffffffffffffffffffffff021916908373ffffffffffffffffffffffffffffffffffffffff16021790555050565b600a5481565b6111156117db565b8060058190555050565b61113161112a61194b565b8383611e3d565b5050565b60045481565b6111436117db565b8060068190555050565b60085481565b600b5481565b6000600190506004548260085461117091906137ea565b11156111b1576040517f08c379a00000000000000000000000000000000000000000000000000000000081526004016111a89061388c565b60405180910390fd5b600f54601060003373ffffffffffffffffffffffffffffffffffffffff1673ffffffffffffffffffffffffffffffffffffffff1681526020019081526020016000205410611234576040517f08c379a000000000000000000000000000000000000000000000000000000000815260040161122b906138f8565b60405180910390fd5b61123e8183611c75565b601060003373ffffffffffffffffffffffffffffffffffffffff1673ffffffffffffffffffffffffffffffffffffffff168152602001908152602001600020600081548092919061128e90613918565b919050555081600860008282546112a591906137ea565b925050819055505050565b600060029050600554826009546112c791906137ea565b1115611308576040517f08c379a00000000000000000000000000000000000000000000000000000000081526004016112ff9061388c565b60405180910390fd5b600f54601160003373ffffffffffffffffffffffffffffffffffffffff1673ffffffffffffffffffffffffffffffffffffffff168152602001908152602001600020541061138b576040517f08c379a0000000000000000000000000000000000000000000000000000000008152600401611382906138f8565b60405180910390fd5b6113958183611c75565b601160003373ffffffffffffffffffffffffffffffffffffffff1673ffffffffffffffffffffffffffffffffffffffff16815260200190815260200160002060008154809291906113e590613918565b919050555081600960008282546113fc91906137ea565b925050819055505050565b60006003905060065482600a5461141e91906137ea565b111561145f576040517f08c379a00000000000000000000000000000000000000000000000000000000081526004016114569061388c565b60405180910390fd5b600f54601260003373ffffffffffffffffffffffffffffffffffffffff1673ffffffffffffffffffffffffffffffffffffffff16815260200190815260200160002054106114e2576040517f08c379a00000000000000000000000000000000000000000000000000000000081526004016114d9906138f8565b60405180910390fd5b6114ec8183611c75565b601260003373ffffffffffffffffffffffffffffffffffffffff1673ffffffffffffffffffffffffffffffffffffffff168152602001908152602001600020600081548092919061153c90613918565b919050555081600a600082825461155391906137ea565b925050819055505050565b60116020528060005260406000206000915090505481565b60126020528060005260406000206000915090505481565b6000600160008473ffffffffffffffffffffffffffffffffffffffff1673ffffffffffffffffffffffffffffffffffffffff16815260200190815260200160002060008373ffffffffffffffffffffffffffffffffffffffff1673ffffffffffffffffffffffffffffffffffffffff16815260200190815260200160002060009054906101000a900460ff16905092915050565b61162a61194b565b73ffffffffffffffffffffffffffffffffffffffff168573ffffffffffffffffffffffffffffffffffffffff161480611670575061166f8561166a61194b565b61158e565b5b6116af576040517f08c379a00000000000000000000000000000000000000000000000000000000081526004016116a69061379b565b60405180910390fd5b6116bc8585858585611faa565b5050505050565b6116cb6117db565b8060048190555050565b6116dd6117db565b600073ffffffffffffffffffffffffffffffffffffffff168173ffffffffffffffffffffffffffffffffffffffff16141561174d576040517f08c379a000000000000000000000000000000000000000000000000000000000815260040161174490613b46565b60405180910390fd5b61175681611d77565b50565b6117616117db565b80600c8190555050565b60055481565b60007f01ffc9a7000000000000000000000000000000000000000000000000000000007bffffffffffffffffffffffffffffffffffffffffffffffffffffffff1916827bffffffffffffffffffffffffffffffffffffffffffffffffffffffff1916149050919050565b6117e361194b565b73ffffffffffffffffffffffffffffffffffffffff16611801611091565b73ffffffffffffffffffffffffffffffffffffffff1614611857576040517f08c379a000000000000000000000000000000000000000000000000000000000815260040161184e90613bb2565b60405180910390fd5b565b806002908051906020019061186f9291906129c5565b5050565b60606000600161188284612246565b01905060008167ffffffffffffffff8111156118a1576118a0612c50565b5b6040519080825280601f01601f1916602001820160405280156118d35781602001600182028036833780820191505090505b509050600082602001820190505b600115611940578080600190039150507f3031323334353637383961626364656600000000000000000000000000000000600a86061a8153600a858161192a57611929613bd2565b5b049450600085141561193b57611940565b6118e1565b819350505050919050565b600033905090565b8151835114611997576040517f08c379a000000000000000000000000000000000000000000000000000000000815260040161198e90613c73565b60405180910390fd5b600073ffffffffffffffffffffffffffffffffffffffff168473ffffffffffffffffffffffffffffffffffffffff161415611a07576040517f08c379a00000000000000000000000000000000000000000000000000000000081526004016119fe90613d05565b60405180910390fd5b6000611a1161194b565b9050611a21818787878787612399565b60005b8451811015611bd2576000858281518110611a4257611a41613aa5565b5b602002602001015190506000858381518110611a6157611a60613aa5565b5b60200260200101519050600080600084815260200190815260200160002060008b73ffffffffffffffffffffffffffffffffffffffff1673ffffffffffffffffffffffffffffffffffffffff16815260200190815260200160002054905081811015611b02576040517f08c379a0000000000000000000000000000000000000000000000000000000008152600401611af990613d97565b60405180910390fd5b81810360008085815260200190815260200160002060008c73ffffffffffffffffffffffffffffffffffffffff1673ffffffffffffffffffffffffffffffffffffffff168152602001908152602001600020819055508160008085815260200190815260200160002060008b73ffffffffffffffffffffffffffffffffffffffff1673ffffffffffffffffffffffffffffffffffffffff1681526020019081526020016000206000828254611bb791906137ea565b9250508190555050505080611bcb90613918565b9050611a24565b508473ffffffffffffffffffffffffffffffffffffffff168673ffffffffffffffffffffffffffffffffffffffff168273ffffffffffffffffffffffffffffffffffffffff167f4a39dc06d4c0dbc64b70af90fd698a233a518aa5d07e595d983b8c0526c8f7fb8787604051611c49929190613db7565b60405180910390a4611c5f8187878787876123a1565b611c6d8187878787876123a9565b505050505050565b600d60149054906101000a900460ff16611cc4576040517f08c379a0000000000000000000000000000000000000000000000000000000008152600401611cbb90613e3a565b60405180910390fd5b80600c54611cd29190613e5a565b3414611d13576040517f08c379a0000000000000000000000000000000000000000000000000000000008152600401611d0a90613f00565b60405180910390fd5b600e54811115611d58576040517f08c379a0000000000000000000000000000000000000000000000000000000008152600401611d4f90613f6c565b60405180910390fd5b611d7333838360405180602001604052806000815250612590565b5050565b6000600360009054906101000a900473ffffffffffffffffffffffffffffffffffffffff16905081600360006101000a81548173ffffffffffffffffffffffffffffffffffffffff021916908373ffffffffffffffffffffffffffffffffffffffff1602179055508173ffffffffffffffffffffffffffffffffffffffff168173ffffffffffffffffffffffffffffffffffffffff167f8be0079c531659141344cd1fd0a4f28419497f9722a3daafe3b4186f6b6457e060405160405180910390a35050565b8173ffffffffffffffffffffffffffffffffffffffff168373ffffffffffffffffffffffffffffffffffffffff161415611eac576040517f08c379a0000000000000000000000000000000000000000000000000000000008152600401611ea390613ffe565b60405180910390fd5b80600160008573ffffffffffffffffffffffffffffffffffffffff1673ffffffffffffffffffffffffffffffffffffffff16815260200190815260200160002060008473ffffffffffffffffffffffffffffffffffffffff1673ffffffffffffffffffffffffffffffffffffffff16815260200190815260200160002060006101000a81548160ff0219169083151502179055508173ffffffffffffffffffffffffffffffffffffffff168373ffffffffffffffffffffffffffffffffffffffff167f17307eab39ab6107e8899845ad3d59bd9653f200f220920489ca2b5937696c3183604051611f9d9190612b95565b60405180910390a3505050565b600073ffffffffffffffffffffffffffffffffffffffff168473ffffffffffffffffffffffffffffffffffffffff16141561201a576040517f08c379a000000000000000000000000000000000000000000000000000000000815260040161201190613d05565b60405180910390fd5b600061202461194b565b9050600061203185612741565b9050600061203e85612741565b905061204e838989858589612399565b600080600088815260200190815260200160002060008a73ffffffffffffffffffffffffffffffffffffffff1673ffffffffffffffffffffffffffffffffffffffff168152602001908152602001600020549050858110156120e5576040517f08c379a00000000000000000000000000000000000000000000000000000000081526004016120dc90613d97565b60405180910390fd5b85810360008089815260200190815260200160002060008b73ffffffffffffffffffffffffffffffffffffffff1673ffffffffffffffffffffffffffffffffffffffff168152602001908152602001600020819055508560008089815260200190815260200160002060008a73ffffffffffffffffffffffffffffffffffffffff1673ffffffffffffffffffffffffffffffffffffffff168152602001908152602001600020600082825461219a91906137ea565b925050819055508773ffffffffffffffffffffffffffffffffffffffff168973ffffffffffffffffffffffffffffffffffffffff168573ffffffffffffffffffffffffffffffffffffffff167fc3d58168c5ae7397731d063d5bbf3d657854427343f4c083240f7aacaa2d0f628a8a60405161221792919061401e565b60405180910390a461222d848a8a86868a6123a1565b61223b848a8a8a8a8a6127bb565b505050505050505050565b600080600090507a184f03e93ff9f4daa797ed6e38ed64bf6a1f01000000000000000083106122a4577a184f03e93ff9f4daa797ed6e38ed64bf6a1f010000000000000000838161229a57612299613bd2565b5b0492506040810190505b6d04ee2d6d415b85acef810000000083106122e1576d04ee2d6d415b85acef810000000083816122d7576122d6613bd2565b5b0492506020810190505b662386f26fc10000831061231057662386f26fc10000838161230657612305613bd2565b5b0492506010810190505b6305f5e1008310612339576305f5e100838161232f5761232e613bd2565b5b0492506008810190505b612710831061235e57612710838161235457612353613bd2565b5b0492506004810190505b60648310612381576064838161237757612376613bd2565b5b0492506002810190505b600a8310612390576001810190505b80915050919050565b505050505050565b505050505050565b6123c88473ffffffffffffffffffffffffffffffffffffffff166129a2565b15612588578373ffffffffffffffffffffffffffffffffffffffff1663bc197c8187878686866040518663ffffffff1660e01b815260040161240e95949392919061409c565b602060405180830381600087803b15801561242857600080fd5b505af192505050801561245957506040513d601f19601f820116820180604052508101906124569190614119565b60015b6124ff57612465614153565b806308c379a014156124c2575061247a614175565b8061248557506124c4565b806040517f08c379a00000000000000000000000000000000000000000000000000000000081526004016124b99190612e79565b60405180910390fd5b505b6040517f08c379a00000000000000000000000000000000000000000000000000000000081526004016124f69061427d565b60405180910390fd5b63bc197c8160e01b7bffffffffffffffffffffffffffffffffffffffffffffffffffffffff1916817bffffffffffffffffffffffffffffffffffffffffffffffffffffffff191614612586576040517f08c379a000000000000000000000000000000000000000000000000000000000815260040161257d9061430f565b60405180910390fd5b505b505050505050565b600073ffffffffffffffffffffffffffffffffffffffff168473ffffffffffffffffffffffffffffffffffffffff161415612600576040517f08c379a00000000000000000000000000000000000000000000000000000000081526004016125f7906143a1565b60405180910390fd5b600061260a61194b565b9050600061261785612741565b9050600061262485612741565b905061263583600089858589612399565b8460008088815260200190815260200160002060008973ffffffffffffffffffffffffffffffffffffffff1673ffffffffffffffffffffffffffffffffffffffff168152602001908152602001600020600082825461269491906137ea565b925050819055508673ffffffffffffffffffffffffffffffffffffffff16600073ffffffffffffffffffffffffffffffffffffffff168473ffffffffffffffffffffffffffffffffffffffff167fc3d58168c5ae7397731d063d5bbf3d657854427343f4c083240f7aacaa2d0f62898960405161271292919061401e565b60405180910390a4612729836000898585896123a1565b612738836000898989896127bb565b50505050505050565b60606000600167ffffffffffffffff8111156127605761275f612c50565b5b60405190808252806020026020018201604052801561278e5781602001602082028036833780820191505090505b50905082816000815181106127a6576127a5613aa5565b5b60200260200101818152505080915050919050565b6127da8473ffffffffffffffffffffffffffffffffffffffff166129a2565b1561299a578373ffffffffffffffffffffffffffffffffffffffff1663f23a6e6187878686866040518663ffffffff1660e01b81526004016128209594939291906143c1565b602060405180830381600087803b15801561283a57600080fd5b505af192505050801561286b57506040513d601f19601f820116820180604052508101906128689190614119565b60015b61291157612877614153565b806308c379a014156128d4575061288c614175565b8061289757506128d6565b806040517f08c379a00000000000000000000000000000000000000000000000000000000081526004016128cb9190612e79565b60405180910390fd5b505b6040517f08c379a00000000000000000000000000000000000000000000000000000000081526004016129089061427d565b60405180910390fd5b63f23a6e6160e01b7bffffffffffffffffffffffffffffffffffffffffffffffffffffffff1916817bffffffffffffffffffffffffffffffffffffffffffffffffffffffff191614612998576040517f08c379a000000000000000000000000000000000000000000000000000000000815260040161298f9061430f565b60405180910390fd5b505b505050505050565b6000808273ffffffffffffffffffffffffffffffffffffffff163b119050919050565b8280546129d19061444a565b90600052602060002090601f0160209004810192826129f35760008555612a3a565b82601f10612a0c57805160ff1916838001178555612a3a565b82800160010185558215612a3a579182015b82811115612a39578251825591602001919060010190612a1e565b5b509050612a479190612a4b565b5090565b5b80821115612a64576000816000905550600101612a4c565b5090565b6000604051905090565b600080fd5b600080fd5b600073ffffffffffffffffffffffffffffffffffffffff82169050919050565b6000612aa782612a7c565b9050919050565b612ab781612a9c565b8114612ac257600080fd5b50565b600081359050612ad481612aae565b92915050565b6000819050919050565b612aed81612ada565b8114612af857600080fd5b50565b600081359050612b0a81612ae4565b92915050565b60008060408385031215612b2757612b26612a72565b5b6000612b3585828601612ac5565b9250506020612b4685828601612afb565b9150509250929050565b612b5981612ada565b82525050565b6000602082019050612b746000830184612b50565b92915050565b60008115159050919050565b612b8f81612b7a565b82525050565b6000602082019050612baa6000830184612b86565b92915050565b60007fffffffff0000000000000000000000000000000000000000000000000000000082169050919050565b612be581612bb0565b8114612bf057600080fd5b50565b600081359050612c0281612bdc565b92915050565b600060208284031215612c1e57612c1d612a72565b5b6000612c2c84828501612bf3565b91505092915050565b600080fd5b600080fd5b6000601f19601f8301169050919050565b7f4e487b7100000000000000000000000000000000000000000000000000000000600052604160045260246000fd5b612c8882612c3f565b810181811067ffffffffffffffff82111715612ca757612ca6612c50565b5b80604052505050565b6000612cba612a68565b9050612cc68282612c7f565b919050565b600067ffffffffffffffff821115612ce657612ce5612c50565b5b612cef82612c3f565b9050602081019050919050565b82818337600083830152505050565b6000612d1e612d1984612ccb565b612cb0565b905082815260208101848484011115612d3a57612d39612c3a565b5b612d45848285612cfc565b509392505050565b600082601f830112612d6257612d61612c35565b5b8135612d72848260208601612d0b565b91505092915050565b600060208284031215612d9157612d90612a72565b5b600082013567ffffffffffffffff811115612daf57612dae612a77565b5b612dbb84828501612d4d565b91505092915050565b600060208284031215612dda57612dd9612a72565b5b6000612de884828501612afb565b91505092915050565b600081519050919050565b600082825260208201905092915050565b60005b83811015612e2b578082015181840152602081019050612e10565b83811115612e3a576000848401525b50505050565b6000612e4b82612df1565b612e558185612dfc565b9350612e65818560208601612e0d565b612e6e81612c3f565b840191505092915050565b60006020820190508181036000830152612e938184612e40565b905092915050565b612ea481612b7a565b8114612eaf57600080fd5b50565b600081359050612ec181612e9b565b92915050565b600060208284031215612edd57612edc612a72565b5b6000612eeb84828501612eb2565b91505092915050565b600060208284031215612f0a57612f09612a72565b5b6000612f1884828501612ac5565b91505092915050565b600067ffffffffffffffff821115612f3c57612f3b612c50565b5b602082029050602081019050919050565b600080fd5b6000612f65612f6084612f21565b612cb0565b90508083825260208201905060208402830185811115612f8857612f87612f4d565b5b835b81811015612fb15780612f9d8882612afb565b845260208401935050602081019050612f8a565b5050509392505050565b600082601f830112612fd057612fcf612c35565b5b8135612fe0848260208601612f52565b91505092915050565b600067ffffffffffffffff82111561300457613003612c50565b5b61300d82612c3f565b9050602081019050919050565b600061302d61302884612fe9565b612cb0565b90508281526020810184848401111561304957613048612c3a565b5b613054848285612cfc565b509392505050565b600082601f83011261307157613070612c35565b5b813561308184826020860161301a565b91505092915050565b600080600080600060a086880312156130a6576130a5612a72565b5b60006130b488828901612ac5565b95505060206130c588828901612ac5565b945050604086013567ffffffffffffffff8111156130e6576130e5612a77565b5b6130f288828901612fbb565b935050606086013567ffffffffffffffff81111561311357613112612a77565b5b61311f88828901612fbb565b925050608086013567ffffffffffffffff8111156131405761313f612a77565b5b61314c8882890161305c565b9150509295509295909350565b600067ffffffffffffffff82111561317457613173612c50565b5b602082029050602081019050919050565b600061319861319384613159565b612cb0565b905080838252602082019050602084028301858111156131bb576131ba612f4d565b5b835b818110156131e457806131d08882612ac5565b8452602084019350506020810190506131bd565b5050509392505050565b600082601f83011261320357613202612c35565b5b8135613213848260208601613185565b91505092915050565b6000806040838503121561323357613232612a72565b5b600083013567ffffffffffffffff81111561325157613250612a77565b5b61325d858286016131ee565b925050602083013567ffffffffffffffff81111561327e5761327d612a77565b5b61328a85828601612fbb565b9150509250929050565b600081519050919050565b600082825260208201905092915050565b6000819050602082019050919050565b6132c981612ada565b82525050565b60006132db83836132c0565b60208301905092915050565b6000602082019050919050565b60006132ff82613294565b613309818561329f565b9350613314836132b0565b8060005b8381101561334557815161332c88826132cf565b9750613337836132e7565b925050600181019050613318565b5085935050505092915050565b6000602082019050818103600083015261336c81846132f4565b905092915050565b600061337f82612a7c565b9050919050565b61338f81613374565b82525050565b60006020820190506133aa6000830184613386565b92915050565b6133b981612a9c565b82525050565b60006020820190506133d460008301846133b0565b92915050565b6133e381613374565b81146133ee57600080fd5b50565b600081359050613400816133da565b92915050565b60006020828403121561341c5761341b612a72565b5b600061342a848285016133f1565b91505092915050565b6000806040838503121561344a57613449612a72565b5b600061345885828601612ac5565b925050602061346985828601612eb2565b9150509250929050565b6000806040838503121561348a57613489612a72565b5b600061349885828601612ac5565b92505060206134a985828601612ac5565b9150509250929050565b600080600080600060a086880312156134cf576134ce612a72565b5b60006134dd88828901612ac5565b95505060206134ee88828901612ac5565b94505060406134ff88828901612afb565b935050606061351088828901612afb565b925050608086013567ffffffffffffffff81111561353157613530612a77565b5b61353d8882890161305c565b9150509295509295909350565b7f455243313135353a2061646472657373207a65726f206973206e6f742061207660008201527f616c6964206f776e657200000000000000000000000000000000000000000000602082015250565b60006135a6602a83612dfc565b91506135b18261354a565b604082019050919050565b600060208201905081810360008301526135d581613599565b9050919050565b600081905092915050565b7f68747470733a2f2f697066732e696f2f697066732f516d53347a52536239506560008201527f32486876416e4e51666e646d6432693850626d674e6e4638464b794b6b374d4c60208201527f3458552f00000000000000000000000000000000000000000000000000000000604082015250565b60006136696044836135dc565b9150613674826135e7565b604482019050919050565b600061368a82612df1565b61369481856135dc565b93506136a4818560208601612e0d565b80840191505092915050565b7f2e6a736f6e000000000000000000000000000000000000000000000000000000600082015250565b60006136e66005836135dc565b91506136f1826136b0565b600582019050919050565b60006137078261365c565b9150613713828461367f565b915061371e826136d9565b915081905092915050565b7f455243313135353a2063616c6c6572206973206e6f7420746f6b656e206f776e60008201527f6572206f7220617070726f766564000000000000000000000000000000000000602082015250565b6000613785602e83612dfc565b915061379082613729565b604082019050919050565b600060208201905081810360008301526137b481613778565b9050919050565b7f4e487b7100000000000000000000000000000000000000000000000000000000600052601160045260246000fd5b60006137f582612ada565b915061380083612ada565b9250827fffffffffffffffffffffffffffffffffffffffffffffffffffffffffffffffff03821115613835576138346137bb565b5b828201905092915050565b7f4e6f7420656e6f75676820737570706c69657300000000000000000000000000600082015250565b6000613876601383612dfc565b915061388182613840565b602082019050919050565b600060208201905081810360008301526138a581613869565b9050919050565b7f416c7265616479206d696e746564000000000000000000000000000000000000600082015250565b60006138e2600e83612dfc565b91506138ed826138ac565b602082019050919050565b60006020820190508181036000830152613911816138d5565b9050919050565b600061392382612ada565b91507fffffffffffffffffffffffffffffffffffffffffffffffffffffffffffffffff821415613956576139556137bb565b5b600182019050919050565b600081905092915050565b50565b600061397c600083613961565b91506139878261396c565b600082019050919050565b600061399d8261396f565b9150819050919050565b7f7769746864726177206661696c65640000000000000000000000000000000000600082015250565b60006139dd600f83612dfc565b91506139e8826139a7565b602082019050919050565b60006020820190508181036000830152613a0c816139d0565b9050919050565b7f455243313135353a206163636f756e747320616e6420696473206c656e67746860008201527f206d69736d617463680000000000000000000000000000000000000000000000602082015250565b6000613a6f602983612dfc565b9150613a7a82613a13565b604082019050919050565b60006020820190508181036000830152613a9e81613a62565b9050919050565b7f4e487b7100000000000000000000000000000000000000000000000000000000600052603260045260246000fd5b7f4f776e61626c653a206e6577206f776e657220697320746865207a65726f206160008201527f6464726573730000000000000000000000000000000000000000000000000000602082015250565b6000613b30602683612dfc565b9150613b3b82613ad4565b604082019050919050565b60006020820190508181036000830152613b5f81613b23565b9050919050565b7f4f776e61626c653a2063616c6c6572206973206e6f7420746865206f776e6572600082015250565b6000613b9c602083612dfc565b9150613ba782613b66565b602082019050919050565b60006020820190508181036000830152613bcb81613b8f565b9050919050565b7f4e487b7100000000000000000000000000000000000000000000000000000000600052601260045260246000fd5b7f455243313135353a2069647320616e6420616d6f756e7473206c656e6774682060008201527f6d69736d61746368000000000000000000000000000000000000000000000000602082015250565b6000613c5d602883612dfc565b9150613c6882613c01565b604082019050919050565b60006020820190508181036000830152613c8c81613c50565b9050919050565b7f455243313135353a207472616e7366657220746f20746865207a65726f20616460008201527f6472657373000000000000000000000000000000000000000000000000000000602082015250565b6000613cef602583612dfc565b9150613cfa82613c93565b604082019050919050565b60006020820190508181036000830152613d1e81613ce2565b9050919050565b7f455243313135353a20696e73756666696369656e742062616c616e636520666f60008201527f72207472616e7366657200000000000000000000000000000000000000000000602082015250565b6000613d81602a83612dfc565b9150613d8c82613d25565b604082019050919050565b60006020820190508181036000830152613db081613d74565b9050919050565b60006040820190508181036000830152613dd181856132f4565b90508181036020830152613de581846132f4565b90509392505050565b7f4d696e74696e67206973206e6f74206c69766500000000000000000000000000600082015250565b6000613e24601383612dfc565b9150613e2f82613dee565b602082019050919050565b60006020820190508181036000830152613e5381613e17565b9050919050565b6000613e6582612ada565b9150613e7083612ada565b9250817fffffffffffffffffffffffffffffffffffffffffffffffffffffffffffffffff0483118215151615613ea957613ea86137bb565b5b828202905092915050565b7f496e73756666696369656e742066756e64730000000000000000000000000000600082015250565b6000613eea601283612dfc565b9150613ef582613eb4565b602082019050919050565b60006020820190508181036000830152613f1981613edd565b9050919050565b7f457863656564206d6178206d696e740000000000000000000000000000000000600082015250565b6000613f56600f83612dfc565b9150613f6182613f20565b602082019050919050565b60006020820190508181036000830152613f8581613f49565b9050919050565b7f455243313135353a2073657474696e6720617070726f76616c2073746174757360008201527f20666f722073656c660000000000000000000000000000000000000000000000602082015250565b6000613fe8602983612dfc565b9150613ff382613f8c565b604082019050919050565b6000602082019050818103600083015261401781613fdb565b9050919050565b60006040820190506140336000830185612b50565b6140406020830184612b50565b9392505050565b600081519050919050565b600082825260208201905092915050565b600061406e82614047565b6140788185614052565b9350614088818560208601612e0d565b61409181612c3f565b840191505092915050565b600060a0820190506140b160008301886133b0565b6140be60208301876133b0565b81810360408301526140d081866132f4565b905081810360608301526140e481856132f4565b905081810360808301526140f88184614063565b90509695505050505050565b60008151905061411381612bdc565b92915050565b60006020828403121561412f5761412e612a72565b5b600061413d84828501614104565b91505092915050565b60008160e01c9050919050565b600060033d11156141725760046000803e61416f600051614146565b90505b90565b600060443d101561418557614208565b61418d612a68565b60043d036004823e80513d602482011167ffffffffffffffff821117156141b5575050614208565b808201805167ffffffffffffffff8111156141d35750505050614208565b80602083010160043d0385018111156141f0575050505050614208565b6141ff82602001850186612c7f565b82955050505050505b90565b7f455243313135353a207472616e7366657220746f206e6f6e2d4552433131353560008201527f526563656976657220696d706c656d656e746572000000000000000000000000602082015250565b6000614267603483612dfc565b91506142728261420b565b604082019050919050565b600060208201905081810360008301526142968161425a565b9050919050565b7f455243313135353a204552433131353552656365697665722072656a6563746560008201527f6420746f6b656e73000000000000000000000000000000000000000000000000602082015250565b60006142f9602883612dfc565b91506143048261429d565b604082019050919050565b60006020820190508181036000830152614328816142ec565b9050919050565b7f455243313135353a206d696e7420746f20746865207a65726f2061646472657360008201527f7300000000000000000000000000000000000000000000000000000000000000602082015250565b600061438b602183612dfc565b91506143968261432f565b604082019050919050565b600060208201905081810360008301526143ba8161437e565b9050919050565b600060a0820190506143d660008301886133b0565b6143e360208301876133b0565b6143f06040830186612b50565b6143fd6060830185612b50565b818103608083015261440f8184614063565b90509695505050505050565b7f4e487b7100000000000000000000000000000000000000000000000000000000600052602260045260246000fd5b6000600282049050600182168061446257607f821691505b602082108114156144765761447561441b565b5b5091905056fea2646970667358221220f4edfdf8836867a021fd5cf788267ed9525cdb215839170e46d46b67edc998cd64736f6c6343000809003368747470733a2f2f697066732e696f2f697066732f516d53347a52536239506532486876416e4e51666e646d6432693850626d674e6e4638464b794b6b374d4c3458552f7b69647d2e6a736f6e",
  "linkReferences": {},
  "deployedLinkReferences": {}
}