{
  "_format": "hh-sol-artifact-1",
  "contractName": "ExampleNFT",
  "sourceName": "contracts/ExampleNFT.sol",
  "abi": [
    {
      "inputs": [],
      "stateMutability": "nonpayable",
      "type": "constructor"
    },
    {
      "anonymous": false,
      "inputs": [
        {
          "indexed": true,
          "internalType": "address",
          "name": "account",
          "type": "address"
        },
        {
          "indexed": true,
          "internalType": "address",
          "name": "operator",
          "type": "address"
        },
        {
          "indexed": false,
          "internalType": "bool",
          "name": "approved",
          "type": "bool"
        }
      ],
      "name": "ApprovalForAll",
      "type": "event"
    },
    {
      "anonymous": false,
      "inputs": [
        {
          "indexed": true,
          "internalType": "address",
          "name": "previousOwner",
          "type": "address"
        },
        {
          "indexed": true,
          "internalType": "address",
          "name": "newOwner",
          "type": "address"
        }
      ],
      "name": "OwnershipTransferred",
      "type": "event"
    },
    {
      "anonymous": false,
      "inputs": [
        {
          "indexed": true,
          "internalType": "address",
          "name": "operator",
          "type": "address"
        },
        {
          "indexed": true,
          "internalType": "address",
          "name": "from",
          "type": "address"
        },
        {
          "indexed": true,
          "internalType": "address",
          "name": "to",
          "type": "address"
        },
        {
          "indexed": false,
          "internalType": "uint256[]",
          "name": "ids",
          "type": "uint256[]"
        },
        {
          "indexed": false,
          "internalType": "uint256[]",
          "name": "values",
          "type": "uint256[]"
        }
      ],
      "name": "TransferBatch",
      "type": "event"
    },
    {
      "anonymous": false,
      "inputs": [
        {
          "indexed": true,
          "internalType": "address",
          "name": "operator",
          "type": "address"
        },
        {
          "indexed": true,
          "internalType": "address",
          "name": "from",
          "type": "address"
        },
        {
          "indexed": true,
          "internalType": "address",
          "name": "to",
          "type": "address"
        },
        {
          "indexed": false,
          "internalType": "uint256",
          "name": "id",
          "type": "uint256"
        },
        {
          "indexed": false,
          "internalType": "uint256",
          "name": "value",
          "type": "uint256"
        }
      ],
      "name": "TransferSingle",
      "type": "event"
    },
    {
      "anonymous": false,
      "inputs": [
        {
          "indexed": false,
          "internalType": "string",
          "name": "value",
          "type": "string"
        },
        {
          "indexed": true,
          "internalType": "uint256",
          "name": "id",
          "type": "uint256"
        }
      ],
      "name": "URI",
      "type": "event"
    },
    {
      "inputs": [
        {
          "internalType": "address",
          "name": "account",
          "type": "address"
        },
        {
          "internalType": "uint256",
          "name": "id",
          "type": "uint256"
        }
      ],
      "name": "balanceOf",
      "outputs": [
        {
          "internalType": "uint256",
          "name": "",
          "type": "uint256"
        }
      ],
      "stateMutability": "view",
      "type": "function"
    },
    {
      "inputs": [
        {
          "internalType": "address[]",
          "name": "accounts",
          "type": "address[]"
        },
        {
          "internalType": "uint256[]",
          "name": "ids",
          "type": "uint256[]"
        }
      ],
      "name": "balanceOfBatch",
      "outputs": [
        {
          "internalType": "uint256[]",
          "name": "",
          "type": "uint256[]"
        }
      ],
      "stateMutability": "view",
      "type": "function"
    },
    {
      "inputs": [
        {
          "internalType": "address",
          "name": "account",
          "type": "address"
        },
        {
          "internalType": "address",
          "name": "operator",
          "type": "address"
        }
      ],
      "name": "isApprovedForAll",
      "outputs": [
        {
          "internalType": "bool",
          "name": "",
          "type": "bool"
        }
      ],
      "stateMutability": "view",
      "type": "function"
    },
    {
      "inputs": [],
      "name": "isPublicMintEnabled",
      "outputs": [
        {
          "internalType": "bool",
          "name": "",
          "type": "bool"
        }
      ],
      "stateMutability": "view",
      "type": "function"
    },
    {
      "inputs": [],
      "name": "mintFour",
      "outputs": [],
      "stateMutability": "payable",
      "type": "function"
    },
    {
      "inputs": [],
      "name": "mintOne",
      "outputs": [],
      "stateMutability": "payable",
      "type": "function"
    },
    {
      "inputs": [],
      "name": "mintPrice",
      "outputs": [
        {
          "internalType": "uint256",
          "name": "",
          "type": "uint256"
        }
      ],
      "stateMutability": "view",
      "type": "function"
    },
    {
      "inputs": [],
      "name": "mintThree",
      "outputs": [],
      "stateMutability": "payable",
      "type": "function"
    },
    {
      "inputs": [],
      "name": "mintTwo",
      "outputs": [],
      "stateMutability": "payable",
      "type": "function"
    },
    {
      "inputs": [
        {
          "internalType": "uint256",
          "name": "",
          "type": "uint256"
        }
      ],
      "name": "minted",
      "outputs": [
        {
          "internalType": "uint256",
          "name": "",
          "type": "uint256"
        }
      ],
      "stateMutability": "view",
      "type": "function"
    },
    {
      "inputs": [],
      "name": "owner",
      "outputs": [
        {
          "internalType": "address",
          "name": "",
          "type": "address"
        }
      ],
      "stateMutability": "view",
      "type": "function"
    },
    {
      "inputs": [],
      "name": "renounceOwnership",
      "outputs": [],
      "stateMutability": "nonpayable",
      "type": "function"
    },
    {
      "inputs": [
        {
          "internalType": "address",
          "name": "from",
          "type": "address"
        },
        {
          "internalType": "address",
          "name": "to",
          "type": "address"
        },
        {
          "internalType": "uint256[]",
          "name": "ids",
          "type": "uint256[]"
        },
        {
          "internalType": "uint256[]",
          "name": "amounts",
          "type": "uint256[]"
        },
        {
          "internalType": "bytes",
          "name": "data",
          "type": "bytes"
        }
      ],
      "name": "safeBatchTransferFrom",
      "outputs": [],
      "stateMutability": "nonpayable",
      "type": "function"
    },
    {
      "inputs": [
        {
          "internalType": "address",
          "name": "from",
          "type": "address"
        },
        {
          "internalType": "address",
          "name": "to",
          "type": "address"
        },
        {
          "internalType": "uint256",
          "name": "id",
          "type": "uint256"
        },
        {
          "internalType": "uint256",
          "name": "amount",
          "type": "uint256"
        },
        {
          "internalType": "bytes",
          "name": "data",
          "type": "bytes"
        }
      ],
      "name": "safeTransferFrom",
      "outputs": [],
      "stateMutability": "nonpayable",
      "type": "function"
    },
    {
      "inputs": [
        {
          "internalType": "address",
          "name": "operator",
          "type": "address"
        },
        {
          "internalType": "bool",
          "name": "approved",
          "type": "bool"
        }
      ],
      "name": "setApprovalForAll",
      "outputs": [],
      "stateMutability": "nonpayable",
      "type": "function"
    },
    {
      "inputs": [
        {
          "internalType": "bool",
          "name": "_isPublicMintEnabled",
          "type": "bool"
        }
      ],
      "name": "setIsPublicMintEnabled",
      "outputs": [],
      "stateMutability": "nonpayable",
      "type": "function"
    },
    {
      "inputs": [
        {
          "internalType": "uint256",
          "name": "_mintPrice",
          "type": "uint256"
        }
      ],
      "name": "setMintPrice",
      "outputs": [],
      "stateMutability": "nonpayable",
      "type": "function"
    },
    {
      "inputs": [
        {
          "internalType": "string",
          "name": "newuri",
          "type": "string"
        }
      ],
      "name": "setURI",
      "outputs": [],
      "stateMutability": "nonpayable",
      "type": "function"
    },
    {
      "inputs": [
        {
          "internalType": "address payable",
          "name": "_withdrawWallet",
          "type": "address"
        }
      ],
      "name": "setWithdrawWallet",
      "outputs": [],
      "stateMutability": "nonpayable",
      "type": "function"
    },
    {
      "inputs": [
        {
          "internalType": "uint256",
          "name": "",
          "type": "uint256"
        }
      ],
      "name": "supplies",
      "outputs": [
        {
          "internalType": "uint256",
          "name": "",
          "type": "uint256"
        }
      ],
      "stateMutability": "view",
      "type": "function"
    },
    {
      "inputs": [
        {
          "internalType": "bytes4",
          "name": "interfaceId",
          "type": "bytes4"
        }
      ],
      "name": "supportsInterface",
      "outputs": [
        {
          "internalType": "bool",
          "name": "",
          "type": "bool"
        }
      ],
      "stateMutability": "view",
      "type": "function"
    },
    {
      "inputs": [
        {
          "internalType": "address",
          "name": "newOwner",
          "type": "address"
        }
      ],
      "name": "transferOwnership",
      "outputs": [],
      "stateMutability": "nonpayable",
      "type": "function"
    },
    {
      "inputs": [
        {
          "internalType": "uint256",
          "name": "_tokenId",
          "type": "uint256"
        }
      ],
      "name": "uri",
      "outputs": [
        {
          "internalType": "string",
          "name": "",
          "type": "string"
        }
      ],
      "stateMutability": "pure",
      "type": "function"
    },
    {
      "inputs": [
        {
          "internalType": "address",
          "name": "",
          "type": "address"
        }
      ],
      "name": "walletMintFour",
      "outputs": [
        {
          "internalType": "uint256",
          "name": "",
          "type": "uint256"
        }
      ],
      "stateMutability": "view",
      "type": "function"
    },
    {
      "inputs": [
        {
          "internalType": "address",
          "name": "",
          "type": "address"
        }
      ],
      "name": "walletMintOne",
      "outputs": [
        {
          "internalType": "uint256",
          "name": "",
          "type": "uint256"
        }
      ],
      "stateMutability": "view",
      "type": "function"
    },
    {
      "inputs": [
        {
          "internalType": "address",
          "name": "",
          "type": "address"
        }
      ],
      "name": "walletMintThree",
      "outputs": [
        {
          "internalType": "uint256",
          "name": "",
          "type": "uint256"
        }
      ],
      "stateMutability": "view",
      "type": "function"
    },
    {
      "inputs": [
        {
          "internalType": "address",
          "name": "",
          "type": "address"
        }
      ],
      "name": "walletMintTwo",
      "outputs": [
        {
          "internalType": "uint256",
          "name": "",
          "type": "uint256"
        }
      ],
      "stateMutability": "view",
      "type": "function"
    },
    {
      "inputs": [],
      "name": "withdraw",
      "outputs": [],
      "stateMutability": "nonpayable",
      "type": "function"
    },
    {
      "inputs": [],
      "name": "withdrawWallet",
      "outputs": [
        {
          "internalType": "address payable",
          "name": "",
          "type": "address"
        }
      ],
      "stateMutability": "view",
      "type": "function"
    }
  ],
  "bytecode": "0x60806040526040518060800160405280600a60ff168152602001600a60ff168152602001600a60ff168152602001600a60ff16815250600490600462000047929190620001d6565b506040518060800160405280600060ff168152602001600060ff168152602001600060ff168152602001600060ff1681525060059060046200008b929190620001d6565b503480156200009957600080fd5b506040518060800160405280604d815260200162004a5e604d9139620000c581620000ec60201b60201c565b50620000e6620000da6200010860201b60201c565b6200011060201b60201c565b62000342565b8060029080519060200190620001049291906200022d565b5050565b600033905090565b6000600360009054906101000a900473ffffffffffffffffffffffffffffffffffffffff16905081600360006101000a81548173ffffffffffffffffffffffffffffffffffffffff021916908373ffffffffffffffffffffffffffffffffffffffff1602179055508173ffffffffffffffffffffffffffffffffffffffff168173ffffffffffffffffffffffffffffffffffffffff167f8be0079c531659141344cd1fd0a4f28419497f9722a3daafe3b4186f6b6457e060405160405180910390a35050565b8280548282559060005260206000209081019282156200021a579160200282015b8281111562000219578251829060ff16905591602001919060010190620001f7565b5b509050620002299190620002be565b5090565b8280546200023b906200030c565b90600052602060002090601f0160209004810192826200025f5760008555620002ab565b82601f106200027a57805160ff1916838001178555620002ab565b82800160010185558215620002ab579182015b82811115620002aa5782518255916020019190600101906200028d565b5b509050620002ba9190620002be565b5090565b5b80821115620002d9576000816000905550600101620002bf565b5090565b7f4e487b7100000000000000000000000000000000000000000000000000000000600052602260045260246000fd5b600060028204905060018216806200032557607f821691505b602082108114156200033c576200033b620002dd565b5b50919050565b61470c80620003526000396000f3fe6080604052600436106101c15760003560e01c80636817c76c116100f75780639373f43211610095578063e985e9c511610064578063e985e9c5146105f7578063f242432a14610634578063f2fde38b1461065d578063f4a0a52814610686576101c1565b80639373f4321461052b578063a22cb46514610554578063e01e0b211461057d578063e84674cf146105ba576101c1565b806385d178f4116100d157806385d178f41461048e57806387f712d4146104b95780638ba213dc146104c35780638da5cb5b14610500576101c1565b80636817c76c1461040f578063715018a61461043a5780637dc0bf3f14610451576101c1565b806323a4c27e116101645780633ccfd60b1161013e5780633ccfd60b146103a75780633eb4f793146103be5780634e1273f4146103c85780635aa9e2a814610405576101c1565b806323a4c27e1461030457806326f1a1fd146103415780632eb2c2d61461037e576101c1565b806302fe5305116101a057806302fe53051461026b5780630ced8637146102945780630e89341c1461029e5780632373ac22146102db576101c1565b8062fdd58e146101c65780630116bc2d1461020357806301ffc9a71461022e575b600080fd5b3480156101d257600080fd5b506101ed60048036038101906101e89190612d36565b6106af565b6040516101fa9190612d85565b60405180910390f35b34801561020f57600080fd5b50610218610778565b6040516102259190612dbb565b60405180910390f35b34801561023a57600080fd5b5061025560048036038101906102509190612e2e565b61078b565b6040516102629190612dbb565b60405180910390f35b34801561027757600080fd5b50610292600480360381019061028d9190612fa1565b61086d565b005b61029c610881565b005b3480156102aa57600080fd5b506102c560048036038101906102c09190612fea565b610b7d565b6040516102d2919061309f565b60405180910390f35b3480156102e757600080fd5b5061030260048036038101906102fd91906130ed565b610bae565b005b34801561031057600080fd5b5061032b6004803603810190610326919061311a565b610bd3565b6040516103389190612d85565b60405180910390f35b34801561034d57600080fd5b5061036860048036038101906103639190612fea565b610beb565b6040516103759190612d85565b60405180910390f35b34801561038a57600080fd5b506103a560048036038101906103a091906132b0565b610c0f565b005b3480156103b357600080fd5b506103bc610cb0565b005b6103c6610d89565b005b3480156103d457600080fd5b506103ef60048036038101906103ea9190613442565b611085565b6040516103fc9190613578565b60405180910390f35b61040d61119e565b005b34801561041b57600080fd5b5061042461149a565b6040516104319190612d85565b60405180910390f35b34801561044657600080fd5b5061044f6114a0565b005b34801561045d57600080fd5b5061047860048036038101906104739190612fea565b6114b4565b6040516104859190612d85565b60405180910390f35b34801561049a57600080fd5b506104a36114d8565b6040516104b091906135bb565b60405180910390f35b6104c16114fe565b005b3480156104cf57600080fd5b506104ea60048036038101906104e5919061311a565b6117fa565b6040516104f79190612d85565b60405180910390f35b34801561050c57600080fd5b50610515611812565b60405161052291906135e5565b60405180910390f35b34801561053757600080fd5b50610552600480360381019061054d919061362c565b61183c565b005b34801561056057600080fd5b5061057b60048036038101906105769190613659565b611888565b005b34801561058957600080fd5b506105a4600480360381019061059f919061311a565b61189e565b6040516105b19190612d85565b60405180910390f35b3480156105c657600080fd5b506105e160048036038101906105dc919061311a565b6118b6565b6040516105ee9190612d85565b60405180910390f35b34801561060357600080fd5b5061061e60048036038101906106199190613699565b6118ce565b60405161062b9190612dbb565b60405180910390f35b34801561064057600080fd5b5061065b600480360381019061065691906136d9565b611962565b005b34801561066957600080fd5b50610684600480360381019061067f919061311a565b611a03565b005b34801561069257600080fd5b506106ad60048036038101906106a89190612fea565b611a87565b005b60008073ffffffffffffffffffffffffffffffffffffffff168373ffffffffffffffffffffffffffffffffffffffff161415610720576040517f08c379a0000000000000000000000000000000000000000000000000000000008152600401610717906137e2565b60405180910390fd5b60008083815260200190815260200160002060008473ffffffffffffffffffffffffffffffffffffffff1673ffffffffffffffffffffffffffffffffffffffff16815260200190815260200160002054905092915050565b600760149054906101000a900460ff1681565b60007fd9b67a26000000000000000000000000000000000000000000000000000000007bffffffffffffffffffffffffffffffffffffffffffffffffffffffff1916827bffffffffffffffffffffffffffffffffffffffffffffffffffffffff1916148061085657507f0e89341c000000000000000000000000000000000000000000000000000000007bffffffffffffffffffffffffffffffffffffffffffffffffffffffff1916827bffffffffffffffffffffffffffffffffffffffffffffffffffffffff1916145b80610866575061086582611a99565b5b9050919050565b610875611b03565b61087e81611b81565b50565b600060019050600060019050600760149054906101000a900460ff166108dc576040517f08c379a00000000000000000000000000000000000000000000000000000000081526004016108d39061384e565b60405180910390fd5b600480549050821115610924576040517f08c379a000000000000000000000000000000000000000000000000000000000815260040161091b906138ba565b60405180910390fd5b60008211610967576040517f08c379a000000000000000000000000000000000000000000000000000000000815260040161095e906138ba565b60405180910390fd5b60006001836109769190613909565b90506004818154811061098c5761098b61393d565b5b906000526020600020015482600583815481106109ac576109ab61393d565b5b90600052602060002001546109c1919061396c565b1115610a02576040517f08c379a00000000000000000000000000000000000000000000000000000000081526004016109f990613a0e565b60405180910390fd5b81600654610a109190613a2e565b3414610a51576040517f08c379a0000000000000000000000000000000000000000000000000000000008152600401610a4890613ad4565b60405180910390fd5b6001600860003373ffffffffffffffffffffffffffffffffffffffff1673ffffffffffffffffffffffffffffffffffffffff1681526020019081526020016000205410610ad3576040517f08c379a0000000000000000000000000000000000000000000000000000000008152600401610aca90613b40565b60405180910390fd5b610aee33848460405180602001604052806000815250611b9b565b600860003373ffffffffffffffffffffffffffffffffffffffff1673ffffffffffffffffffffffffffffffffffffffff1681526020019081526020016000206000815480929190610b3e90613b60565b91905055508160058281548110610b5857610b5761393d565b5b906000526020600020016000828254610b71919061396c565b92505081905550505050565b6060610b8882611d4c565b604051602001610b989190613cc9565b6040516020818303038152906040529050919050565b610bb6611b03565b80600760146101000a81548160ff02191690831515021790555050565b600b6020528060005260406000206000915090505481565b60048181548110610bfb57600080fd5b906000526020600020016000915090505481565b610c17611e24565b73ffffffffffffffffffffffffffffffffffffffff168573ffffffffffffffffffffffffffffffffffffffff161480610c5d5750610c5c85610c57611e24565b6118ce565b5b610c9c576040517f08c379a0000000000000000000000000000000000000000000000000000000008152600401610c9390613d68565b60405180910390fd5b610ca98585858585611e2c565b5050505050565b610cb8611b03565b6000600760009054906101000a900473ffffffffffffffffffffffffffffffffffffffff1673ffffffffffffffffffffffffffffffffffffffff1647604051610d0090613db9565b60006040518083038185875af1925050503d8060008114610d3d576040519150601f19603f3d011682016040523d82523d6000602084013e610d42565b606091505b5050905080610d86576040517f08c379a0000000000000000000000000000000000000000000000000000000008152600401610d7d90613e1a565b60405180910390fd5b50565b600060049050600060019050600760149054906101000a900460ff16610de4576040517f08c379a0000000000000000000000000000000000000000000000000000000008152600401610ddb9061384e565b60405180910390fd5b600480549050821115610e2c576040517f08c379a0000000000000000000000000000000000000000000000000000000008152600401610e23906138ba565b60405180910390fd5b60008211610e6f576040517f08c379a0000000000000000000000000000000000000000000000000000000008152600401610e66906138ba565b60405180910390fd5b6000600183610e7e9190613909565b905060048181548110610e9457610e9361393d565b5b90600052602060002001548260058381548110610eb457610eb361393d565b5b9060005260206000200154610ec9919061396c565b1115610f0a576040517f08c379a0000000000000000000000000000000000000000000000000000000008152600401610f0190613a0e565b60405180910390fd5b81600654610f189190613a2e565b3414610f59576040517f08c379a0000000000000000000000000000000000000000000000000000000008152600401610f5090613ad4565b60405180910390fd5b6001600b60003373ffffffffffffffffffffffffffffffffffffffff1673ffffffffffffffffffffffffffffffffffffffff1681526020019081526020016000205410610fdb576040517f08c379a0000000000000000000000000000000000000000000000000000000008152600401610fd290613b40565b60405180910390fd5b610ff633848460405180602001604052806000815250611b9b565b600b60003373ffffffffffffffffffffffffffffffffffffffff1673ffffffffffffffffffffffffffffffffffffffff168152602001908152602001600020600081548092919061104690613b60565b919050555081600582815481106110605761105f61393d565b5b906000526020600020016000828254611079919061396c565b92505081905550505050565b606081518351146110cb576040517f08c379a00000000000000000000000000000000000000000000000000000000081526004016110c290613eac565b60405180910390fd5b6000835167ffffffffffffffff8111156110e8576110e7612e76565b5b6040519080825280602002602001820160405280156111165781602001602082028036833780820191505090505b50905060005b84518110156111935761116385828151811061113b5761113a61393d565b5b60200260200101518583815181106111565761115561393d565b5b60200260200101516106af565b8282815181106111765761117561393d565b5b6020026020010181815250508061118c90613b60565b905061111c565b508091505092915050565b600060039050600060019050600760149054906101000a900460ff166111f9576040517f08c379a00000000000000000000000000000000000000000000000000000000081526004016111f09061384e565b60405180910390fd5b600480549050821115611241576040517f08c379a0000000000000000000000000000000000000000000000000000000008152600401611238906138ba565b60405180910390fd5b60008211611284576040517f08c379a000000000000000000000000000000000000000000000000000000000815260040161127b906138ba565b60405180910390fd5b60006001836112939190613909565b9050600481815481106112a9576112a861393d565b5b906000526020600020015482600583815481106112c9576112c861393d565b5b90600052602060002001546112de919061396c565b111561131f576040517f08c379a000000000000000000000000000000000000000000000000000000000815260040161131690613a0e565b60405180910390fd5b8160065461132d9190613a2e565b341461136e576040517f08c379a000000000000000000000000000000000000000000000000000000000815260040161136590613ad4565b60405180910390fd5b6001600a60003373ffffffffffffffffffffffffffffffffffffffff1673ffffffffffffffffffffffffffffffffffffffff16815260200190815260200160002054106113f0576040517f08c379a00000000000000000000000000000000000000000000000000000000081526004016113e790613b40565b60405180910390fd5b61140b33848460405180602001604052806000815250611b9b565b600a60003373ffffffffffffffffffffffffffffffffffffffff1673ffffffffffffffffffffffffffffffffffffffff168152602001908152602001600020600081548092919061145b90613b60565b919050555081600582815481106114755761147461393d565b5b90600052602060002001600082825461148e919061396c565b92505081905550505050565b60065481565b6114a8611b03565b6114b2600061214e565b565b600581815481106114c457600080fd5b906000526020600020016000915090505481565b600760009054906101000a900473ffffffffffffffffffffffffffffffffffffffff1681565b600060029050600060019050600760149054906101000a900460ff16611559576040517f08c379a00000000000000000000000000000000000000000000000000000000081526004016115509061384e565b60405180910390fd5b6004805490508211156115a1576040517f08c379a0000000000000000000000000000000000000000000000000000000008152600401611598906138ba565b60405180910390fd5b600082116115e4576040517f08c379a00000000000000000000000000000000000000000000000000000000081526004016115db906138ba565b60405180910390fd5b60006001836115f39190613909565b9050600481815481106116095761160861393d565b5b906000526020600020015482600583815481106116295761162861393d565b5b906000526020600020015461163e919061396c565b111561167f576040517f08c379a000000000000000000000000000000000000000000000000000000000815260040161167690613a0e565b60405180910390fd5b8160065461168d9190613a2e565b34146116ce576040517f08c379a00000000000000000000000000000000000000000000000000000000081526004016116c590613ad4565b60405180910390fd5b6001600960003373ffffffffffffffffffffffffffffffffffffffff1673ffffffffffffffffffffffffffffffffffffffff1681526020019081526020016000205410611750576040517f08c379a000000000000000000000000000000000000000000000000000000000815260040161174790613b40565b60405180910390fd5b61176b33848460405180602001604052806000815250611b9b565b600960003373ffffffffffffffffffffffffffffffffffffffff1673ffffffffffffffffffffffffffffffffffffffff16815260200190815260200160002060008154809291906117bb90613b60565b919050555081600582815481106117d5576117d461393d565b5b9060005260206000200160008282546117ee919061396c565b92505081905550505050565b60086020528060005260406000206000915090505481565b6000600360009054906101000a900473ffffffffffffffffffffffffffffffffffffffff16905090565b611844611b03565b80600760006101000a81548173ffffffffffffffffffffffffffffffffffffffff021916908373ffffffffffffffffffffffffffffffffffffffff16021790555050565b61189a611893611e24565b8383612214565b5050565b60096020528060005260406000206000915090505481565b600a6020528060005260406000206000915090505481565b6000600160008473ffffffffffffffffffffffffffffffffffffffff1673ffffffffffffffffffffffffffffffffffffffff16815260200190815260200160002060008373ffffffffffffffffffffffffffffffffffffffff1673ffffffffffffffffffffffffffffffffffffffff16815260200190815260200160002060009054906101000a900460ff16905092915050565b61196a611e24565b73ffffffffffffffffffffffffffffffffffffffff168573ffffffffffffffffffffffffffffffffffffffff1614806119b057506119af856119aa611e24565b6118ce565b5b6119ef576040517f08c379a00000000000000000000000000000000000000000000000000000000081526004016119e690613d68565b60405180910390fd5b6119fc8585858585612381565b5050505050565b611a0b611b03565b600073ffffffffffffffffffffffffffffffffffffffff168173ffffffffffffffffffffffffffffffffffffffff161415611a7b576040517f08c379a0000000000000000000000000000000000000000000000000000000008152600401611a7290613f3e565b60405180910390fd5b611a848161214e565b50565b611a8f611b03565b8060068190555050565b60007f01ffc9a7000000000000000000000000000000000000000000000000000000007bffffffffffffffffffffffffffffffffffffffffffffffffffffffff1916827bffffffffffffffffffffffffffffffffffffffffffffffffffffffff1916149050919050565b611b0b611e24565b73ffffffffffffffffffffffffffffffffffffffff16611b29611812565b73ffffffffffffffffffffffffffffffffffffffff1614611b7f576040517f08c379a0000000000000000000000000000000000000000000000000000000008152600401611b7690613faa565b60405180910390fd5b565b8060029080519060200190611b97929190612beb565b5050565b600073ffffffffffffffffffffffffffffffffffffffff168473ffffffffffffffffffffffffffffffffffffffff161415611c0b576040517f08c379a0000000000000000000000000000000000000000000000000000000008152600401611c029061403c565b60405180910390fd5b6000611c15611e24565b90506000611c228561261d565b90506000611c2f8561261d565b9050611c4083600089858589612697565b8460008088815260200190815260200160002060008973ffffffffffffffffffffffffffffffffffffffff1673ffffffffffffffffffffffffffffffffffffffff1681526020019081526020016000206000828254611c9f919061396c565b925050819055508673ffffffffffffffffffffffffffffffffffffffff16600073ffffffffffffffffffffffffffffffffffffffff168473ffffffffffffffffffffffffffffffffffffffff167fc3d58168c5ae7397731d063d5bbf3d657854427343f4c083240f7aacaa2d0f628989604051611d1d92919061405c565b60405180910390a4611d348360008985858961269f565b611d43836000898989896126a7565b50505050505050565b606060006001611d5b8461288e565b01905060008167ffffffffffffffff811115611d7a57611d79612e76565b5b6040519080825280601f01601f191660200182016040528015611dac5781602001600182028036833780820191505090505b509050600082602001820190505b600115611e19578080600190039150507f3031323334353637383961626364656600000000000000000000000000000000600a86061a8153600a8581611e0357611e02614085565b5b0494506000851415611e1457611e19565b611dba565b819350505050919050565b600033905090565b8151835114611e70576040517f08c379a0000000000000000000000000000000000000000000000000000000008152600401611e6790614126565b60405180910390fd5b600073ffffffffffffffffffffffffffffffffffffffff168473ffffffffffffffffffffffffffffffffffffffff161415611ee0576040517f08c379a0000000000000000000000000000000000000000000000000000000008152600401611ed7906141b8565b60405180910390fd5b6000611eea611e24565b9050611efa818787878787612697565b60005b84518110156120ab576000858281518110611f1b57611f1a61393d565b5b602002602001015190506000858381518110611f3a57611f3961393d565b5b60200260200101519050600080600084815260200190815260200160002060008b73ffffffffffffffffffffffffffffffffffffffff1673ffffffffffffffffffffffffffffffffffffffff16815260200190815260200160002054905081811015611fdb576040517f08c379a0000000000000000000000000000000000000000000000000000000008152600401611fd29061424a565b60405180910390fd5b81810360008085815260200190815260200160002060008c73ffffffffffffffffffffffffffffffffffffffff1673ffffffffffffffffffffffffffffffffffffffff168152602001908152602001600020819055508160008085815260200190815260200160002060008b73ffffffffffffffffffffffffffffffffffffffff1673ffffffffffffffffffffffffffffffffffffffff1681526020019081526020016000206000828254612090919061396c565b92505081905550505050806120a490613b60565b9050611efd565b508473ffffffffffffffffffffffffffffffffffffffff168673ffffffffffffffffffffffffffffffffffffffff168273ffffffffffffffffffffffffffffffffffffffff167f4a39dc06d4c0dbc64b70af90fd698a233a518aa5d07e595d983b8c0526c8f7fb878760405161212292919061426a565b60405180910390a461213881878787878761269f565b6121468187878787876129e1565b505050505050565b6000600360009054906101000a900473ffffffffffffffffffffffffffffffffffffffff16905081600360006101000a81548173ffffffffffffffffffffffffffffffffffffffff021916908373ffffffffffffffffffffffffffffffffffffffff1602179055508173ffffffffffffffffffffffffffffffffffffffff168173ffffffffffffffffffffffffffffffffffffffff167f8be0079c531659141344cd1fd0a4f28419497f9722a3daafe3b4186f6b6457e060405160405180910390a35050565b8173ffffffffffffffffffffffffffffffffffffffff168373ffffffffffffffffffffffffffffffffffffffff161415612283576040517f08c379a000000000000000000000000000000000000000000000000000000000815260040161227a90614313565b60405180910390fd5b80600160008573ffffffffffffffffffffffffffffffffffffffff1673ffffffffffffffffffffffffffffffffffffffff16815260200190815260200160002060008473ffffffffffffffffffffffffffffffffffffffff1673ffffffffffffffffffffffffffffffffffffffff16815260200190815260200160002060006101000a81548160ff0219169083151502179055508173ffffffffffffffffffffffffffffffffffffffff168373ffffffffffffffffffffffffffffffffffffffff167f17307eab39ab6107e8899845ad3d59bd9653f200f220920489ca2b5937696c31836040516123749190612dbb565b60405180910390a3505050565b600073ffffffffffffffffffffffffffffffffffffffff168473ffffffffffffffffffffffffffffffffffffffff1614156123f1576040517f08c379a00000000000000000000000000000000000000000000000000000000081526004016123e8906141b8565b60405180910390fd5b60006123fb611e24565b905060006124088561261d565b905060006124158561261d565b9050612425838989858589612697565b600080600088815260200190815260200160002060008a73ffffffffffffffffffffffffffffffffffffffff1673ffffffffffffffffffffffffffffffffffffffff168152602001908152602001600020549050858110156124bc576040517f08c379a00000000000000000000000000000000000000000000000000000000081526004016124b39061424a565b60405180910390fd5b85810360008089815260200190815260200160002060008b73ffffffffffffffffffffffffffffffffffffffff1673ffffffffffffffffffffffffffffffffffffffff168152602001908152602001600020819055508560008089815260200190815260200160002060008a73ffffffffffffffffffffffffffffffffffffffff1673ffffffffffffffffffffffffffffffffffffffff1681526020019081526020016000206000828254612571919061396c565b925050819055508773ffffffffffffffffffffffffffffffffffffffff168973ffffffffffffffffffffffffffffffffffffffff168573ffffffffffffffffffffffffffffffffffffffff167fc3d58168c5ae7397731d063d5bbf3d657854427343f4c083240f7aacaa2d0f628a8a6040516125ee92919061405c565b60405180910390a4612604848a8a86868a61269f565b612612848a8a8a8a8a6126a7565b505050505050505050565b60606000600167ffffffffffffffff81111561263c5761263b612e76565b5b60405190808252806020026020018201604052801561266a5781602001602082028036833780820191505090505b50905082816000815181106126825761268161393d565b5b60200260200101818152505080915050919050565b505050505050565b505050505050565b6126c68473ffffffffffffffffffffffffffffffffffffffff16612bc8565b15612886578373ffffffffffffffffffffffffffffffffffffffff1663f23a6e6187878686866040518663ffffffff1660e01b815260040161270c959493929190614388565b602060405180830381600087803b15801561272657600080fd5b505af192505050801561275757506040513d601f19601f8201168201806040525081019061275491906143f7565b60015b6127fd57612763614431565b806308c379a014156127c05750612778614453565b8061278357506127c2565b806040517f08c379a00000000000000000000000000000000000000000000000000000000081526004016127b7919061309f565b60405180910390fd5b505b6040517f08c379a00000000000000000000000000000000000000000000000000000000081526004016127f49061455b565b60405180910390fd5b63f23a6e6160e01b7bffffffffffffffffffffffffffffffffffffffffffffffffffffffff1916817bffffffffffffffffffffffffffffffffffffffffffffffffffffffff191614612884576040517f08c379a000000000000000000000000000000000000000000000000000000000815260040161287b906145ed565b60405180910390fd5b505b505050505050565b600080600090507a184f03e93ff9f4daa797ed6e38ed64bf6a1f01000000000000000083106128ec577a184f03e93ff9f4daa797ed6e38ed64bf6a1f01000000000000000083816128e2576128e1614085565b5b0492506040810190505b6d04ee2d6d415b85acef81000000008310612929576d04ee2d6d415b85acef8100000000838161291f5761291e614085565b5b0492506020810190505b662386f26fc10000831061295857662386f26fc10000838161294e5761294d614085565b5b0492506010810190505b6305f5e1008310612981576305f5e100838161297757612976614085565b5b0492506008810190505b61271083106129a657612710838161299c5761299b614085565b5b0492506004810190505b606483106129c957606483816129bf576129be614085565b5b0492506002810190505b600a83106129d8576001810190505b80915050919050565b612a008473ffffffffffffffffffffffffffffffffffffffff16612bc8565b15612bc0578373ffffffffffffffffffffffffffffffffffffffff1663bc197c8187878686866040518663ffffffff1660e01b8152600401612a4695949392919061460d565b602060405180830381600087803b158015612a6057600080fd5b505af1925050508015612a9157506040513d601f19601f82011682018060405250810190612a8e91906143f7565b60015b612b3757612a9d614431565b806308c379a01415612afa5750612ab2614453565b80612abd5750612afc565b806040517f08c379a0000000000000000000000000000000000000000000000000000000008152600401612af1919061309f565b60405180910390fd5b505b6040517f08c379a0000000000000000000000000000000000000000000000000000000008152600401612b2e9061455b565b60405180910390fd5b63bc197c8160e01b7bffffffffffffffffffffffffffffffffffffffffffffffffffffffff1916817bffffffffffffffffffffffffffffffffffffffffffffffffffffffff191614612bbe576040517f08c379a0000000000000000000000000000000000000000000000000000000008152600401612bb5906145ed565b60405180910390fd5b505b505050505050565b6000808273ffffffffffffffffffffffffffffffffffffffff163b119050919050565b828054612bf7906146a4565b90600052602060002090601f016020900481019282612c195760008555612c60565b82601f10612c3257805160ff1916838001178555612c60565b82800160010185558215612c60579182015b82811115612c5f578251825591602001919060010190612c44565b5b509050612c6d9190612c71565b5090565b5b80821115612c8a576000816000905550600101612c72565b5090565b6000604051905090565b600080fd5b600080fd5b600073ffffffffffffffffffffffffffffffffffffffff82169050919050565b6000612ccd82612ca2565b9050919050565b612cdd81612cc2565b8114612ce857600080fd5b50565b600081359050612cfa81612cd4565b92915050565b6000819050919050565b612d1381612d00565b8114612d1e57600080fd5b50565b600081359050612d3081612d0a565b92915050565b60008060408385031215612d4d57612d4c612c98565b5b6000612d5b85828601612ceb565b9250506020612d6c85828601612d21565b9150509250929050565b612d7f81612d00565b82525050565b6000602082019050612d9a6000830184612d76565b92915050565b60008115159050919050565b612db581612da0565b82525050565b6000602082019050612dd06000830184612dac565b92915050565b60007fffffffff0000000000000000000000000000000000000000000000000000000082169050919050565b612e0b81612dd6565b8114612e1657600080fd5b50565b600081359050612e2881612e02565b92915050565b600060208284031215612e4457612e43612c98565b5b6000612e5284828501612e19565b91505092915050565b600080fd5b600080fd5b6000601f19601f8301169050919050565b7f4e487b7100000000000000000000000000000000000000000000000000000000600052604160045260246000fd5b612eae82612e65565b810181811067ffffffffffffffff82111715612ecd57612ecc612e76565b5b80604052505050565b6000612ee0612c8e565b9050612eec8282612ea5565b919050565b600067ffffffffffffffff821115612f0c57612f0b612e76565b5b612f1582612e65565b9050602081019050919050565b82818337600083830152505050565b6000612f44612f3f84612ef1565b612ed6565b905082815260208101848484011115612f6057612f5f612e60565b5b612f6b848285612f22565b509392505050565b600082601f830112612f8857612f87612e5b565b5b8135612f98848260208601612f31565b91505092915050565b600060208284031215612fb757612fb6612c98565b5b600082013567ffffffffffffffff811115612fd557612fd4612c9d565b5b612fe184828501612f73565b91505092915050565b60006020828403121561300057612fff612c98565b5b600061300e84828501612d21565b91505092915050565b600081519050919050565b600082825260208201905092915050565b60005b83811015613051578082015181840152602081019050613036565b83811115613060576000848401525b50505050565b600061307182613017565b61307b8185613022565b935061308b818560208601613033565b61309481612e65565b840191505092915050565b600060208201905081810360008301526130b98184613066565b905092915050565b6130ca81612da0565b81146130d557600080fd5b50565b6000813590506130e7816130c1565b92915050565b60006020828403121561310357613102612c98565b5b6000613111848285016130d8565b91505092915050565b6000602082840312156131305761312f612c98565b5b600061313e84828501612ceb565b91505092915050565b600067ffffffffffffffff82111561316257613161612e76565b5b602082029050602081019050919050565b600080fd5b600061318b61318684613147565b612ed6565b905080838252602082019050602084028301858111156131ae576131ad613173565b5b835b818110156131d757806131c38882612d21565b8452602084019350506020810190506131b0565b5050509392505050565b600082601f8301126131f6576131f5612e5b565b5b8135613206848260208601613178565b91505092915050565b600067ffffffffffffffff82111561322a57613229612e76565b5b61323382612e65565b9050602081019050919050565b600061325361324e8461320f565b612ed6565b90508281526020810184848401111561326f5761326e612e60565b5b61327a848285612f22565b509392505050565b600082601f83011261329757613296612e5b565b5b81356132a7848260208601613240565b91505092915050565b600080600080600060a086880312156132cc576132cb612c98565b5b60006132da88828901612ceb565b95505060206132eb88828901612ceb565b945050604086013567ffffffffffffffff81111561330c5761330b612c9d565b5b613318888289016131e1565b935050606086013567ffffffffffffffff81111561333957613338612c9d565b5b613345888289016131e1565b925050608086013567ffffffffffffffff81111561336657613365612c9d565b5b61337288828901613282565b9150509295509295909350565b600067ffffffffffffffff82111561339a57613399612e76565b5b602082029050602081019050919050565b60006133be6133b98461337f565b612ed6565b905080838252602082019050602084028301858111156133e1576133e0613173565b5b835b8181101561340a57806133f68882612ceb565b8452602084019350506020810190506133e3565b5050509392505050565b600082601f83011261342957613428612e5b565b5b81356134398482602086016133ab565b91505092915050565b6000806040838503121561345957613458612c98565b5b600083013567ffffffffffffffff81111561347757613476612c9d565b5b61348385828601613414565b925050602083013567ffffffffffffffff8111156134a4576134a3612c9d565b5b6134b0858286016131e1565b9150509250929050565b600081519050919050565b600082825260208201905092915050565b6000819050602082019050919050565b6134ef81612d00565b82525050565b600061350183836134e6565b60208301905092915050565b6000602082019050919050565b6000613525826134ba565b61352f81856134c5565b935061353a836134d6565b8060005b8381101561356b57815161355288826134f5565b975061355d8361350d565b92505060018101905061353e565b5085935050505092915050565b60006020820190508181036000830152613592818461351a565b905092915050565b60006135a582612ca2565b9050919050565b6135b58161359a565b82525050565b60006020820190506135d060008301846135ac565b92915050565b6135df81612cc2565b82525050565b60006020820190506135fa60008301846135d6565b92915050565b6136098161359a565b811461361457600080fd5b50565b60008135905061362681613600565b92915050565b60006020828403121561364257613641612c98565b5b600061365084828501613617565b91505092915050565b600080604083850312156136705761366f612c98565b5b600061367e85828601612ceb565b925050602061368f858286016130d8565b9150509250929050565b600080604083850312156136b0576136af612c98565b5b60006136be85828601612ceb565b92505060206136cf85828601612ceb565b9150509250929050565b600080600080600060a086880312156136f5576136f4612c98565b5b600061370388828901612ceb565b955050602061371488828901612ceb565b945050604061372588828901612d21565b935050606061373688828901612d21565b925050608086013567ffffffffffffffff81111561375757613756612c9d565b5b61376388828901613282565b9150509295509295909350565b7f455243313135353a2061646472657373207a65726f206973206e6f742061207660008201527f616c6964206f776e657200000000000000000000000000000000000000000000602082015250565b60006137cc602a83613022565b91506137d782613770565b604082019050919050565b600060208201905081810360008301526137fb816137bf565b9050919050565b7f4d696e74696e67206973206e6f74206c69766500000000000000000000000000600082015250565b6000613838601383613022565b915061384382613802565b602082019050919050565b600060208201905081810360008301526138678161382b565b9050919050565b7f546f6b656e20646f6573206e6f74206578697374000000000000000000000000600082015250565b60006138a4601483613022565b91506138af8261386e565b602082019050919050565b600060208201905081810360008301526138d381613897565b9050919050565b7f4e487b7100000000000000000000000000000000000000000000000000000000600052601160045260246000fd5b600061391482612d00565b915061391f83612d00565b925082821015613932576139316138da565b5b828203905092915050565b7f4e487b7100000000000000000000000000000000000000000000000000000000600052603260045260246000fd5b600061397782612d00565b915061398283612d00565b9250827fffffffffffffffffffffffffffffffffffffffffffffffffffffffffffffffff038211156139b7576139b66138da565b5b828201905092915050565b7f4e6f7420656e6f75676820737570706c69657300000000000000000000000000600082015250565b60006139f8601383613022565b9150613a03826139c2565b602082019050919050565b60006020820190508181036000830152613a27816139eb565b9050919050565b6000613a3982612d00565b9150613a4483612d00565b9250817fffffffffffffffffffffffffffffffffffffffffffffffffffffffffffffffff0483118215151615613a7d57613a7c6138da565b5b828202905092915050565b7f496e73756666696369656e742066756e64730000000000000000000000000000600082015250565b6000613abe601283613022565b9150613ac982613a88565b602082019050919050565b60006020820190508181036000830152613aed81613ab1565b9050919050565b7f416c7265616479206d696e746564000000000000000000000000000000000000600082015250565b6000613b2a600e83613022565b9150613b3582613af4565b602082019050919050565b60006020820190508181036000830152613b5981613b1d565b9050919050565b6000613b6b82612d00565b91507fffffffffffffffffffffffffffffffffffffffffffffffffffffffffffffffff821415613b9e57613b9d6138da565b5b600182019050919050565b600081905092915050565b7f68747470733a2f2f697066732e696f2f697066732f516d53347a52536239506560008201527f32486876416e4e51666e646d6432693850626d674e6e4638464b794b6b374d4c60208201527f3458552f00000000000000000000000000000000000000000000000000000000604082015250565b6000613c36604483613ba9565b9150613c4182613bb4565b604482019050919050565b6000613c5782613017565b613c618185613ba9565b9350613c71818560208601613033565b80840191505092915050565b7f2e6a736f6e000000000000000000000000000000000000000000000000000000600082015250565b6000613cb3600583613ba9565b9150613cbe82613c7d565b600582019050919050565b6000613cd482613c29565b9150613ce08284613c4c565b9150613ceb82613ca6565b915081905092915050565b7f455243313135353a2063616c6c6572206973206e6f7420746f6b656e206f776e60008201527f6572206f7220617070726f766564000000000000000000000000000000000000602082015250565b6000613d52602e83613022565b9150613d5d82613cf6565b604082019050919050565b60006020820190508181036000830152613d8181613d45565b9050919050565b600081905092915050565b50565b6000613da3600083613d88565b9150613dae82613d93565b600082019050919050565b6000613dc482613d96565b9150819050919050565b7f7769746864726177206661696c65640000000000000000000000000000000000600082015250565b6000613e04600f83613022565b9150613e0f82613dce565b602082019050919050565b60006020820190508181036000830152613e3381613df7565b9050919050565b7f455243313135353a206163636f756e747320616e6420696473206c656e67746860008201527f206d69736d617463680000000000000000000000000000000000000000000000602082015250565b6000613e96602983613022565b9150613ea182613e3a565b604082019050919050565b60006020820190508181036000830152613ec581613e89565b9050919050565b7f4f776e61626c653a206e6577206f776e657220697320746865207a65726f206160008201527f6464726573730000000000000000000000000000000000000000000000000000602082015250565b6000613f28602683613022565b9150613f3382613ecc565b604082019050919050565b60006020820190508181036000830152613f5781613f1b565b9050919050565b7f4f776e61626c653a2063616c6c6572206973206e6f7420746865206f776e6572600082015250565b6000613f94602083613022565b9150613f9f82613f5e565b602082019050919050565b60006020820190508181036000830152613fc381613f87565b9050919050565b7f455243313135353a206d696e7420746f20746865207a65726f2061646472657360008201527f7300000000000000000000000000000000000000000000000000000000000000602082015250565b6000614026602183613022565b915061403182613fca565b604082019050919050565b6000602082019050818103600083015261405581614019565b9050919050565b60006040820190506140716000830185612d76565b61407e6020830184612d76565b9392505050565b7f4e487b7100000000000000000000000000000000000000000000000000000000600052601260045260246000fd5b7f455243313135353a2069647320616e6420616d6f756e7473206c656e6774682060008201527f6d69736d61746368000000000000000000000000000000000000000000000000602082015250565b6000614110602883613022565b915061411b826140b4565b604082019050919050565b6000602082019050818103600083015261413f81614103565b9050919050565b7f455243313135353a207472616e7366657220746f20746865207a65726f20616460008201527f6472657373000000000000000000000000000000000000000000000000000000602082015250565b60006141a2602583613022565b91506141ad82614146565b604082019050919050565b600060208201905081810360008301526141d181614195565b9050919050565b7f455243313135353a20696e73756666696369656e742062616c616e636520666f60008201527f72207472616e7366657200000000000000000000000000000000000000000000602082015250565b6000614234602a83613022565b915061423f826141d8565b604082019050919050565b6000602082019050818103600083015261426381614227565b9050919050565b60006040820190508181036000830152614284818561351a565b90508181036020830152614298818461351a565b90509392505050565b7f455243313135353a2073657474696e6720617070726f76616c2073746174757360008201527f20666f722073656c660000000000000000000000000000000000000000000000602082015250565b60006142fd602983613022565b9150614308826142a1565b604082019050919050565b6000602082019050818103600083015261432c816142f0565b9050919050565b600081519050919050565b600082825260208201905092915050565b600061435a82614333565b614364818561433e565b9350614374818560208601613033565b61437d81612e65565b840191505092915050565b600060a08201905061439d60008301886135d6565b6143aa60208301876135d6565b6143b76040830186612d76565b6143c46060830185612d76565b81810360808301526143d6818461434f565b90509695505050505050565b6000815190506143f181612e02565b92915050565b60006020828403121561440d5761440c612c98565b5b600061441b848285016143e2565b91505092915050565b60008160e01c9050919050565b600060033d11156144505760046000803e61444d600051614424565b90505b90565b600060443d1015614463576144e6565b61446b612c8e565b60043d036004823e80513d602482011167ffffffffffffffff821117156144935750506144e6565b808201805167ffffffffffffffff8111156144b157505050506144e6565b80602083010160043d0385018111156144ce5750505050506144e6565b6144dd82602001850186612ea5565b82955050505050505b90565b7f455243313135353a207472616e7366657220746f206e6f6e2d4552433131353560008201527f526563656976657220696d706c656d656e746572000000000000000000000000602082015250565b6000614545603483613022565b9150614550826144e9565b604082019050919050565b6000602082019050818103600083015261457481614538565b9050919050565b7f455243313135353a204552433131353552656365697665722072656a6563746560008201527f6420746f6b656e73000000000000000000000000000000000000000000000000602082015250565b60006145d7602883613022565b91506145e28261457b565b604082019050919050565b60006020820190508181036000830152614606816145ca565b9050919050565b600060a08201905061462260008301886135d6565b61462f60208301876135d6565b8181036040830152614641818661351a565b90508181036060830152614655818561351a565b90508181036080830152614669818461434f565b90509695505050505050565b7f4e487b7100000000000000000000000000000000000000000000000000000000600052602260045260246000fd5b600060028204905060018216806146bc57607f821691505b602082108114156146d0576146cf614675565b5b5091905056fea264697066735822122089144de34007f380a19b7bd1ce17011fd617a150c54c082c66e041a9d71cd82464736f6c6343000809003368747470733a2f2f697066732e696f2f697066732f516d53347a52536239506532486876416e4e51666e646d6432693850626d674e6e4638464b794b6b374d4c3458552f7b69647d2e6a736f6e",
  "linkReferences": {},
  "deployedLinkReferences": {}
}